{
  "contractName": "ArrayUtils",
  "abi": [
    {
      "inputs": [
        {
          "internalType": "uint256[]",
          "name": "_array",
          "type": "uint256[]"
        }
      ],
      "name": "sort",
      "outputs": [
        {
          "internalType": "uint256[]",
          "name": "",
          "type": "uint256[]"
        }
      ],
      "stateMutability": "pure",
      "type": "function"
    },
    {
      "inputs": [
        {
          "internalType": "uint256[]",
          "name": "_array",
          "type": "uint256[]"
        }
      ],
      "name": "reverse",
      "outputs": [
        {
          "internalType": "uint256[]",
          "name": "",
          "type": "uint256[]"
        }
      ],
      "stateMutability": "pure",
      "type": "function"
    }
  ],
  "bytecode": "0x61052561003a600b82828239805160001a60731461002d57634e487b7160e01b600052600060045260246000fd5b30600052607381538281f3fe73000000000000000000000000000000000000000030146080604052600436106100405760003560e01c80639ec8b02614610045578063a9333cfc1461006e575b600080fd5b610058610053366004610356565b610081565b6040516100659190610414565b60405180910390f35b61005861007c366004610356565b610179565b606060015b82518110156101725760008382815181106100a3576100a3610458565b6020026020010151905060008290505b600181101580156100e65750846100cb600183610484565b815181106100db576100db610458565b602002602001015182105b1561013e57846100f7600183610484565b8151811061010757610107610458565b602002602001015185828151811061012157610121610458565b6020908102919091010152806101368161049d565b9150506100b3565b8185828151811061015157610151610458565b6020026020010181815250505050808061016a906104b4565b915050610086565b5090919050565b606060015b825181101561026a57600083828151811061019b5761019b610458565b6020026020010151905060008290505b600181101580156101de5750846101c3600183610484565b815181106101d3576101d3610458565b602002602001015182105b1561023657846101ef600183610484565b815181106101ff576101ff610458565b602002602001015185828151811061021957610219610458565b60209081029190910101528061022e8161049d565b9150506101ab565b8185828151811061024957610249610458565b60200260200101818152505050508080610262906104b4565b91505061017e565b506000805b6002845161027d91906104cd565b8110156103385783818151811061029657610296610458565b602002602001015191508381600186516102b09190610484565b6102ba9190610484565b815181106102ca576102ca610458565b60200260200101518482815181106102e4576102e4610458565b602002602001018181525050818482600187516103019190610484565b61030b9190610484565b8151811061031b5761031b610458565b602090810291909101015280610330816104b4565b91505061026f565b509192915050565b634e487b7160e01b600052604160045260246000fd5b6000602080838503121561036957600080fd5b823567ffffffffffffffff8082111561038157600080fd5b818501915085601f83011261039557600080fd5b8135818111156103a7576103a7610340565b8060051b604051601f19603f830116810181811085821117156103cc576103cc610340565b6040529182528482019250838101850191888311156103ea57600080fd5b938501935b82851015610408578435845293850193928501926103ef565b98975050505050505050565b6020808252825182820181905260009190848201906040850190845b8181101561044c57835183529284019291840191600101610430565b50909695505050505050565b634e487b7160e01b600052603260045260246000fd5b634e487b7160e01b600052601160045260246000fd5b818103818111156104975761049761046e565b92915050565b6000816104ac576104ac61046e565b506000190190565b6000600182016104c6576104c661046e565b5060010190565b6000826104ea57634e487b7160e01b600052601260045260246000fd5b50049056fea26469706673582212200f6e4d6b538a2237d7c0921efa923ac8500de23fc55b99a859357a8b27d34b3a64736f6c63430008110033",
  "immutableReferences": {},
  "source": "// SPDX-License-Identifier: MIT\n\npragma solidity ^0.8.17;\n\nimport {Math} from  \"@openzeppelin/contracts/utils/math/Math.sol\";\n\n\nlibrary ArrayUtils {\n\n\n      function binarySearch(uint256[] storage array, uint256 key) internal view returns (bool, uint) {\n        if (array.length == 0) {\n            return (false, 0);\n        }\n\n        uint256 low = 0;\n        uint256 high = array.length - 1;\n\n        while (low <= high) {\n            uint256 mid = Math.average(low, high);\n            if (array[mid] == key) {\n                return (true, mid);\n            } else if (array[mid] > key) {\n                high = mid - 1;\n            } else {\n                low = mid + 1;\n            }\n        }\n\n        return (false, 0);\n    }\n\n    function firstIndexOf(uint256[] memory array, uint256 key) internal view returns (bool, uint256) {\n        if (array.length == 0) {\n            return (false, 0);\n        }\n        for (uint256 i = 0; i < array.length; i++) {\n            if (array[i] == key) {\n                return (true, i);\n            }\n        }\n        return (false, 0);\n    }\n\n\n    function equals(uint256[] storage a, uint256[] storage b) internal view returns (bool){\n        if (a.length != b.length) {\n            return false;\n        }\n        for (uint256 i = 0; i < a.length; i++) {\n            if (a[i] != b[i]) {\n                return false;\n            }\n        }\n        return true;\n    }\n\n    function removeByIndex(uint256[] storage array, uint index) internal {\n        require(index < array.length, \"ArrayForUint256: index out of bounds\");\n        while (index < array.length - 1) {\n            array[index] = array[index + 1];\n            index++;\n        }\n        array.pop();\n    }\n\n    function removeByValue(uint256[] storage array, uint256 value) internal {\n        uint index;\n        bool isIn;\n        (isIn, index) = firstIndexOf(array, value);\n        if (isIn) {\n            removeByIndex(array, index);\n        }\n    }\n\n    function addOnlyValue(uint256[] storage array, uint256 value) internal {\n        uint index;\n        bool isIn;\n        (isIn, index) = firstIndexOf(array, value);\n        if (!isIn) {\n            array.push(value);\n        }\n    }\n\n    function addValue(uint256[] storage array, uint256 value) internal {\n        array.push(value);\n    }\n\n    function extend(uint256[] memory a, uint256[] memory b) pure internal {\n        if (b.length != 0) {\n            for (uint i = 0; i < b.length; i++) {\n                a[a.length] = b[i];\n            }\n        }\n    }\n\n    function distinct(uint256[] storage array) internal returns (uint256 length) {\n        bool contains;\n        uint index;\n        for (uint i = 0; i < array.length; i++) {\n            contains = false;\n            index = 0;\n            uint j = i + 1;\n            for (; j < array.length; j++) {\n                if (array[j] == array[i]) {\n                    contains = true;\n                    index = i;\n                    break;\n                }\n            }\n            if (contains) {\n                for (j = index; j < array.length - 1; j++) {\n                    array[j] = array[j + 1];\n                }\n                array.pop();\n                i--;\n            }\n        }\n        length = array.length;\n    }\n\n    function sort(uint256[] memory _array) public  pure  returns(uint256[] memory) {\n        for(uint i = 1; i < _array.length;i++){\n            uint256 item = _array[i];\n            uint256 j=i;\n            while ((j >= 1) && (item < _array[j-1])){\n                _array[j] = _array[j-1];\n                j--;\n            }\n            _array[j] = item;\n        }\n        return _array;\n    }\n\n    function reverse(uint256[] memory _array) public  pure  returns(uint256[] memory) {\n        for(uint i = 1; i < _array.length;i++){\n            uint256 item = _array[i];\n            uint256 j=i;\n            while ((j >= 1) && (item < _array[j-1])){\n                _array[j] = _array[j-1];\n                j--;\n            }\n            _array[j] = item;\n        }\n        uint256 temp;\n        for (uint i = 0; i < _array.length / 2; i++) {\n            temp = _array[i];\n            _array[i] = _array[_array.length - 1 - i];\n            _array[_array.length - 1 - i] = temp;\n        }\n        return _array;\n    }\n\n\n\n    function max(uint256[] memory array) internal pure returns (uint256 maxValue, uint256 maxIndex) {\n        maxValue = array[0];\n        maxIndex = 0;\n        for (uint256 i = 0; i < array.length; i++) {\n            if (array[i] > maxValue) {\n                maxValue = array[i];\n                maxIndex = i;\n            }\n        }\n    }\n\n    function min(uint256[] memory array) internal pure returns (uint256 minValue, uint256 minIndex) {\n        minValue = array[0];\n        minIndex = 0;\n        for (uint256 i = 0; i < array.length; i++) {\n            if (array[i] < minValue) {\n                minValue = array[i];\n                minIndex = i;\n            }\n        }\n    }\n\n}\n",
  "sourcePath": "/Users/brett/workSpace/NFTSea/soonfarming/contracts/utils/ArrayUtils.sol",
  "compiler": {
    "name": "solc",
    "version": "0.8.17+commit.8df45f5f.Emscripten.clang"
  },
  "schemaVersion": "3.4.9",
  "updatedAt": "2022-12-16T07:02:14.995Z",
  "devdoc": {
    "kind": "dev",
    "methods": {},
    "version": 1
  },
  "userdoc": {
    "kind": "user",
    "methods": {},
    "version": 1
  }
}