{
  "contractName": "ArrayTest",
  "abi": [
    {
      "inputs": [
        {
          "internalType": "uint256",
          "name": "",
          "type": "uint256"
        }
      ],
      "name": "array",
      "outputs": [
        {
          "internalType": "uint256",
          "name": "",
          "type": "uint256"
        }
      ],
      "stateMutability": "view",
      "type": "function"
    },
    {
      "inputs": [
        {
          "internalType": "uint256",
          "name": "",
          "type": "uint256"
        }
      ],
      "name": "array2",
      "outputs": [
        {
          "internalType": "uint256",
          "name": "",
          "type": "uint256"
        }
      ],
      "stateMutability": "view",
      "type": "function"
    },
    {
      "inputs": [],
      "name": "length",
      "outputs": [
        {
          "internalType": "uint256",
          "name": "c",
          "type": "uint256"
        }
      ],
      "stateMutability": "view",
      "type": "function"
    },
    {
      "inputs": [
        {
          "internalType": "uint256",
          "name": "value",
          "type": "uint256"
        }
      ],
      "name": "addValue",
      "outputs": [],
      "stateMutability": "nonpayable",
      "type": "function"
    },
    {
      "inputs": [
        {
          "internalType": "uint256",
          "name": "value",
          "type": "uint256"
        }
      ],
      "name": "add",
      "outputs": [],
      "stateMutability": "nonpayable",
      "type": "function"
    },
    {
      "inputs": [
        {
          "internalType": "uint256",
          "name": "key",
          "type": "uint256"
        }
      ],
      "name": "binarySearch",
      "outputs": [
        {
          "internalType": "bool",
          "name": "",
          "type": "bool"
        },
        {
          "internalType": "uint256",
          "name": "",
          "type": "uint256"
        }
      ],
      "stateMutability": "view",
      "type": "function"
    },
    {
      "inputs": [
        {
          "internalType": "uint256",
          "name": "key",
          "type": "uint256"
        }
      ],
      "name": "firstIndexOf",
      "outputs": [
        {
          "internalType": "bool",
          "name": "",
          "type": "bool"
        },
        {
          "internalType": "uint256",
          "name": "",
          "type": "uint256"
        }
      ],
      "stateMutability": "view",
      "type": "function"
    },
    {
      "inputs": [
        {
          "internalType": "uint256",
          "name": "index",
          "type": "uint256"
        }
      ],
      "name": "removeByIndex",
      "outputs": [],
      "stateMutability": "nonpayable",
      "type": "function"
    },
    {
      "inputs": [
        {
          "internalType": "uint256",
          "name": "value",
          "type": "uint256"
        }
      ],
      "name": "removeByValue",
      "outputs": [],
      "stateMutability": "nonpayable",
      "type": "function"
    },
    {
      "inputs": [
        {
          "internalType": "uint256[]",
          "name": "_array",
          "type": "uint256[]"
        }
      ],
      "name": "sort",
      "outputs": [
        {
          "internalType": "uint256[]",
          "name": "",
          "type": "uint256[]"
        }
      ],
      "stateMutability": "pure",
      "type": "function"
    },
    {
      "inputs": [
        {
          "internalType": "uint256[]",
          "name": "_array",
          "type": "uint256[]"
        }
      ],
      "name": "reverse",
      "outputs": [
        {
          "internalType": "uint256[]",
          "name": "",
          "type": "uint256[]"
        }
      ],
      "stateMutability": "pure",
      "type": "function"
    },
    {
      "inputs": [],
      "name": "max",
      "outputs": [
        {
          "internalType": "uint256",
          "name": "maxValue",
          "type": "uint256"
        },
        {
          "internalType": "uint256",
          "name": "maxIndex",
          "type": "uint256"
        }
      ],
      "stateMutability": "view",
      "type": "function"
    },
    {
      "inputs": [],
      "name": "min",
      "outputs": [
        {
          "internalType": "uint256",
          "name": "minValue",
          "type": "uint256"
        },
        {
          "internalType": "uint256",
          "name": "minIndex",
          "type": "uint256"
        }
      ],
      "stateMutability": "view",
      "type": "function"
    },
    {
      "inputs": [],
      "name": "distinct",
      "outputs": [
        {
          "internalType": "uint256",
          "name": "",
          "type": "uint256"
        }
      ],
      "stateMutability": "nonpayable",
      "type": "function"
    }
  ],
  "bytecode": "0x608060405234801561001057600080fd5b50610c7d806100206000396000f3fe608060405234801561001057600080fd5b50600436106100ea5760003560e01c80636ac5db191161008c5780639ec8b026116100665780639ec8b026146101e7578063a9333cfc14610207578063e60ee4111461021a578063f88979451461022d57600080fd5b80636ac5db19146101a45780638b849ded146101c15780638c6fd8ec146101d457600080fd5b80631f7b6d32116100c85780631f7b6d321461017657806338d941931461017e5780635b9af12b146100ef57806361125b631461019157600080fd5b80631003e2d2146100ef57806313442eaa146101315780631de0565c14610160575b600080fd5b61012f6100fd3660046109a9565b600080546001810182559080527f290decd9548b62a8d60345a988386fc84ba6bc95484008f6362f93160ef3e5630155565b005b61014461013f3660046109a9565b610235565b6040805192151583526020830191909152015b60405180910390f35b61016861029b565b604051908152602001610157565b600054610168565b61016861018c3660046109a9565b6102ac565b61016861019f3660046109a9565b6102d0565b6101ac6102e0565b60408051928352602083019190915201610157565b6101446101cf3660046109a9565b610344565b61012f6101e23660046109a9565b610352565b6101fa6101f5366004610a2d565b61035d565b6040516101579190610ac3565b6101fa610215366004610a2d565b6103e2565b61012f6102283660046109a9565b61041c565b6101ac610427565b600080610292600080548060200260200160405190810160405280929190818152602001828054801561028757602002820191906000526020600020905b815481526020019060010190808311610273575b505050505084610483565b91509150915091565b60006102a760006104f3565b905090565b600081815481106102bc57600080fd5b600091825260209091200154905081565b50565b600181815481106102bc57600080fd5b60008061033c600080548060200260200160405190810160405280929190818152602001828054801561033257602002820191906000526020600020905b81548152602001906001019080831161031e575b5050505050610645565b915091509091565b6000806102926000846106ce565b6102cd60008261079a565b604051634f64581360e11b815260609073__ArrayUtils____________________________90639ec8b02690610397908590600401610ac3565b600060405180830381865af41580156103b4573d6000803e3d6000fd5b505050506040513d6000823e601f3d908101601f191682016040526103dc9190810190610b07565b92915050565b604051632a4ccf3f60e21b815260609073__ArrayUtils____________________________9063a9333cfc90610397908590600401610ac3565b6102cd600082610890565b60008061033c600080548060200260200160405190810160405280929190818152602001828054801561047957602002820191906000526020600020905b815481526020019060010190808311610465575b5050505050610904565b600080835160000361049a575060009050806104ec565b60005b84518110156104e357838582815181106104b9576104b9610b8d565b6020026020010151036104d1576001925090506104ec565b806104db81610bb9565b91505061049d565b50600080915091505b9250929050565b60008080805b845481101561063b576000925082915081610515826001610bd2565b90505b855481101561057e5785828154811061053357610533610b8d565b906000526020600020015486828154811061055057610550610b8d565b90600052602060002001540361056c576001935081925061057e565b8061057681610bb9565b915050610518565b83156106285750815b855461059590600190610be5565b8110156105f357856105a8826001610bd2565b815481106105b8576105b8610b8d565b90600052602060002001548682815481106105d5576105d5610b8d565b600091825260209091200155806105eb81610bb9565b915050610587565b8580548061060357610603610bf8565b60019003818190600052602060002001600090559055818061062490610c0e565b9250505b508061063381610bb9565b9150506104f9565b5050915492915050565b6000808260008151811061065b5761065b610b8d565b602002602001015191506000905060005b83518110156106c8578284828151811061068857610688610b8d565b602002602001015111156106b6578381815181106106a8576106a8610b8d565b602002602001015192508091505b806106c081610bb9565b91505061066c565b50915091565b8154600090819081036106e6575060009050806104ec565b835460009081906106f990600190610be5565b90505b80821161078c57600061070f8383610987565b90508587828154811061072457610724610b8d565b906000526020600020015403610742576001945092506104ec915050565b8587828154811061075557610755610b8d565b9060005260206000200154111561077857610771600182610be5565b9150610786565b610783816001610bd2565b92505b506106fc565b506000958695509350505050565b815481106107fa5760405162461bcd60e51b8152602060048201526024808201527f4172726179466f7255696e743235363a20696e646578206f7574206f6620626f604482015263756e647360e01b606482015260840160405180910390fd5b815461080890600190610be5565b811015610866578161081b826001610bd2565b8154811061082b5761082b610b8d565b906000526020600020015482828154811061084857610848610b8d565b6000918252602090912001558061085e81610bb9565b9150506107fa565b8180548061087657610876610bf8565b600190038181906000526020600020016000905590555050565b6000806108ea84805480602002602001604051908101604052809291908181526020018280548015610287576020028201919060005260206000209081548152602001906001019080831161027357505050505084610483565b9250905080156108fe576108fe848361079a565b50505050565b6000808260008151811061091a5761091a610b8d565b602002602001015191506000905060005b83518110156106c8578284828151811061094757610947610b8d565b602002602001015110156109755783818151811061096757610967610b8d565b602002602001015192508091505b8061097f81610bb9565b91505061092b565b60006109966002848418610c25565b6109a290848416610bd2565b9392505050565b6000602082840312156109bb57600080fd5b5035919050565b634e487b7160e01b600052604160045260246000fd5b604051601f8201601f1916810167ffffffffffffffff81118282101715610a0157610a016109c2565b604052919050565b600067ffffffffffffffff821115610a2357610a236109c2565b5060051b60200190565b60006020808385031215610a4057600080fd5b823567ffffffffffffffff811115610a5757600080fd5b8301601f81018513610a6857600080fd5b8035610a7b610a7682610a09565b6109d8565b81815260059190911b82018301908381019087831115610a9a57600080fd5b928401925b82841015610ab857833582529284019290840190610a9f565b979650505050505050565b6020808252825182820181905260009190848201906040850190845b81811015610afb57835183529284019291840191600101610adf565b50909695505050505050565b60006020808385031215610b1a57600080fd5b825167ffffffffffffffff811115610b3157600080fd5b8301601f81018513610b4257600080fd5b8051610b50610a7682610a09565b81815260059190911b82018301908381019087831115610b6f57600080fd5b928401925b82841015610ab857835182529284019290840190610b74565b634e487b7160e01b600052603260045260246000fd5b634e487b7160e01b600052601160045260246000fd5b600060018201610bcb57610bcb610ba3565b5060010190565b808201808211156103dc576103dc610ba3565b818103818111156103dc576103dc610ba3565b634e487b7160e01b600052603160045260246000fd5b600081610c1d57610c1d610ba3565b506000190190565b600082610c4257634e487b7160e01b600052601260045260246000fd5b50049056fea264697066735822122055f418a5b1d955f4a3868b99811681a3b09cccaeac465201d392594716410c7064736f6c63430008110033",
  "immutableReferences": {},
  "source": "// SPDX-License-Identifier: AGPL-3.0\npragma solidity  ^0.8.17;\n\nimport {ArrayUtils} from '../utils/ArrayUtils.sol';\n\n\ncontract ArrayTest {\n\n    uint256[] public array ;\n    uint256[] public array2 ;\n\n    function length() public  view returns (uint256 c) {\n        return array.length;\n    }\n\n    function addValue(uint value) public  {\n         ArrayUtils.addValue(array,value);\n    }\n\n  function add(uint value) public  {\n         array.push(value);\n    }\n\n\n\n    function binarySearch(uint key) public view returns (bool, uint)  {\n       return ArrayUtils.binarySearch(array,key);\n    }\n\n    function firstIndexOf(uint key) public view returns (bool, uint)  {\n       return ArrayUtils.firstIndexOf(array,key);\n    }\n\n\n    function removeByIndex(uint index) public  {\n        ArrayUtils.removeByIndex(array,index);\n    }\n\n    function removeByValue(uint256 value) public  {\n        ArrayUtils.removeByValue(array,value);\n    }\n\n    function sort(uint256[] memory _array) public pure returns(uint256[] memory){\n       return  ArrayUtils.sort(_array);\n    }\n\n    function reverse(uint256[] memory _array) public pure returns(uint256[] memory){\n       return  ArrayUtils.reverse(_array);\n    }\n\n    function max() public view  returns (uint256 maxValue, uint256 maxIndex){\n        return   ArrayUtils.max(array);\n    }\n\n    function min() public view  returns (uint256 minValue, uint256 minIndex){\n        return  ArrayUtils.min(array);\n    }\n\n    function distinct() public  returns(uint256){\n       return  ArrayUtils.distinct(array);\n    }\n\n\n}\n",
  "sourcePath": "/Users/brett/workSpace/NFTSea/soonfarming/contracts/test/ArrayTest.sol",
  "compiler": {
    "name": "solc",
    "version": "0.8.17+commit.8df45f5f.Emscripten.clang"
  },
  "schemaVersion": "3.4.9",
  "updatedAt": "2022-12-16T07:02:14.985Z",
  "devdoc": {
    "kind": "dev",
    "methods": {},
    "version": 1
  },
  "userdoc": {
    "kind": "user",
    "methods": {},
    "version": 1
  }
}