{
  "contractName": "ERC721MockContract",
  "abi": [
    {
      "inputs": [
        {
          "internalType": "string",
          "name": "name",
          "type": "string"
        },
        {
          "internalType": "string",
          "name": "symbol",
          "type": "string"
        },
        {
          "internalType": "string",
          "name": "baseURI",
          "type": "string"
        }
      ],
      "stateMutability": "nonpayable",
      "type": "constructor"
    },
    {
      "anonymous": false,
      "inputs": [
        {
          "indexed": true,
          "internalType": "address",
          "name": "owner",
          "type": "address"
        },
        {
          "indexed": true,
          "internalType": "address",
          "name": "approved",
          "type": "address"
        },
        {
          "indexed": true,
          "internalType": "uint256",
          "name": "tokenId",
          "type": "uint256"
        }
      ],
      "name": "Approval",
      "type": "event"
    },
    {
      "anonymous": false,
      "inputs": [
        {
          "indexed": true,
          "internalType": "address",
          "name": "owner",
          "type": "address"
        },
        {
          "indexed": true,
          "internalType": "address",
          "name": "operator",
          "type": "address"
        },
        {
          "indexed": false,
          "internalType": "bool",
          "name": "approved",
          "type": "bool"
        }
      ],
      "name": "ApprovalForAll",
      "type": "event"
    },
    {
      "anonymous": false,
      "inputs": [
        {
          "indexed": false,
          "internalType": "address",
          "name": "account",
          "type": "address"
        }
      ],
      "name": "Paused",
      "type": "event"
    },
    {
      "anonymous": false,
      "inputs": [
        {
          "indexed": true,
          "internalType": "bytes32",
          "name": "role",
          "type": "bytes32"
        },
        {
          "indexed": true,
          "internalType": "bytes32",
          "name": "previousAdminRole",
          "type": "bytes32"
        },
        {
          "indexed": true,
          "internalType": "bytes32",
          "name": "newAdminRole",
          "type": "bytes32"
        }
      ],
      "name": "RoleAdminChanged",
      "type": "event"
    },
    {
      "anonymous": false,
      "inputs": [
        {
          "indexed": true,
          "internalType": "bytes32",
          "name": "role",
          "type": "bytes32"
        },
        {
          "indexed": true,
          "internalType": "address",
          "name": "account",
          "type": "address"
        },
        {
          "indexed": true,
          "internalType": "address",
          "name": "sender",
          "type": "address"
        }
      ],
      "name": "RoleGranted",
      "type": "event"
    },
    {
      "anonymous": false,
      "inputs": [
        {
          "indexed": true,
          "internalType": "bytes32",
          "name": "role",
          "type": "bytes32"
        },
        {
          "indexed": true,
          "internalType": "address",
          "name": "account",
          "type": "address"
        },
        {
          "indexed": true,
          "internalType": "address",
          "name": "sender",
          "type": "address"
        }
      ],
      "name": "RoleRevoked",
      "type": "event"
    },
    {
      "anonymous": false,
      "inputs": [
        {
          "indexed": true,
          "internalType": "address",
          "name": "from",
          "type": "address"
        },
        {
          "indexed": true,
          "internalType": "address",
          "name": "to",
          "type": "address"
        },
        {
          "indexed": true,
          "internalType": "uint256",
          "name": "tokenId",
          "type": "uint256"
        }
      ],
      "name": "Transfer",
      "type": "event"
    },
    {
      "anonymous": false,
      "inputs": [
        {
          "indexed": false,
          "internalType": "address",
          "name": "account",
          "type": "address"
        }
      ],
      "name": "Unpaused",
      "type": "event"
    },
    {
      "inputs": [],
      "name": "DEFAULT_ADMIN_ROLE",
      "outputs": [
        {
          "internalType": "bytes32",
          "name": "",
          "type": "bytes32"
        }
      ],
      "stateMutability": "view",
      "type": "function"
    },
    {
      "inputs": [],
      "name": "MINTER_ROLE",
      "outputs": [
        {
          "internalType": "bytes32",
          "name": "",
          "type": "bytes32"
        }
      ],
      "stateMutability": "view",
      "type": "function"
    },
    {
      "inputs": [],
      "name": "PAUSER_ROLE",
      "outputs": [
        {
          "internalType": "bytes32",
          "name": "",
          "type": "bytes32"
        }
      ],
      "stateMutability": "view",
      "type": "function"
    },
    {
      "inputs": [
        {
          "internalType": "address",
          "name": "to",
          "type": "address"
        },
        {
          "internalType": "uint256",
          "name": "tokenId",
          "type": "uint256"
        }
      ],
      "name": "approve",
      "outputs": [],
      "stateMutability": "nonpayable",
      "type": "function"
    },
    {
      "inputs": [
        {
          "internalType": "address",
          "name": "owner",
          "type": "address"
        }
      ],
      "name": "balanceOf",
      "outputs": [
        {
          "internalType": "uint256",
          "name": "",
          "type": "uint256"
        }
      ],
      "stateMutability": "view",
      "type": "function"
    },
    {
      "inputs": [
        {
          "internalType": "uint256",
          "name": "tokenId",
          "type": "uint256"
        }
      ],
      "name": "burn",
      "outputs": [],
      "stateMutability": "nonpayable",
      "type": "function"
    },
    {
      "inputs": [
        {
          "internalType": "uint256",
          "name": "tokenId",
          "type": "uint256"
        }
      ],
      "name": "getApproved",
      "outputs": [
        {
          "internalType": "address",
          "name": "",
          "type": "address"
        }
      ],
      "stateMutability": "view",
      "type": "function"
    },
    {
      "inputs": [
        {
          "internalType": "bytes32",
          "name": "role",
          "type": "bytes32"
        }
      ],
      "name": "getRoleAdmin",
      "outputs": [
        {
          "internalType": "bytes32",
          "name": "",
          "type": "bytes32"
        }
      ],
      "stateMutability": "view",
      "type": "function"
    },
    {
      "inputs": [
        {
          "internalType": "bytes32",
          "name": "role",
          "type": "bytes32"
        },
        {
          "internalType": "address",
          "name": "account",
          "type": "address"
        }
      ],
      "name": "grantRole",
      "outputs": [],
      "stateMutability": "nonpayable",
      "type": "function"
    },
    {
      "inputs": [
        {
          "internalType": "bytes32",
          "name": "role",
          "type": "bytes32"
        },
        {
          "internalType": "address",
          "name": "account",
          "type": "address"
        }
      ],
      "name": "hasRole",
      "outputs": [
        {
          "internalType": "bool",
          "name": "",
          "type": "bool"
        }
      ],
      "stateMutability": "view",
      "type": "function"
    },
    {
      "inputs": [
        {
          "internalType": "address",
          "name": "owner",
          "type": "address"
        },
        {
          "internalType": "address",
          "name": "operator",
          "type": "address"
        }
      ],
      "name": "isApprovedForAll",
      "outputs": [
        {
          "internalType": "bool",
          "name": "",
          "type": "bool"
        }
      ],
      "stateMutability": "view",
      "type": "function"
    },
    {
      "inputs": [],
      "name": "name",
      "outputs": [
        {
          "internalType": "string",
          "name": "",
          "type": "string"
        }
      ],
      "stateMutability": "view",
      "type": "function"
    },
    {
      "inputs": [
        {
          "internalType": "uint256",
          "name": "tokenId",
          "type": "uint256"
        }
      ],
      "name": "ownerOf",
      "outputs": [
        {
          "internalType": "address",
          "name": "",
          "type": "address"
        }
      ],
      "stateMutability": "view",
      "type": "function"
    },
    {
      "inputs": [],
      "name": "paused",
      "outputs": [
        {
          "internalType": "bool",
          "name": "",
          "type": "bool"
        }
      ],
      "stateMutability": "view",
      "type": "function"
    },
    {
      "inputs": [
        {
          "internalType": "bytes32",
          "name": "role",
          "type": "bytes32"
        },
        {
          "internalType": "address",
          "name": "account",
          "type": "address"
        }
      ],
      "name": "renounceRole",
      "outputs": [],
      "stateMutability": "nonpayable",
      "type": "function"
    },
    {
      "inputs": [
        {
          "internalType": "bytes32",
          "name": "role",
          "type": "bytes32"
        },
        {
          "internalType": "address",
          "name": "account",
          "type": "address"
        }
      ],
      "name": "revokeRole",
      "outputs": [],
      "stateMutability": "nonpayable",
      "type": "function"
    },
    {
      "inputs": [
        {
          "internalType": "address",
          "name": "from",
          "type": "address"
        },
        {
          "internalType": "address",
          "name": "to",
          "type": "address"
        },
        {
          "internalType": "uint256",
          "name": "tokenId",
          "type": "uint256"
        }
      ],
      "name": "safeTransferFrom",
      "outputs": [],
      "stateMutability": "nonpayable",
      "type": "function"
    },
    {
      "inputs": [
        {
          "internalType": "address",
          "name": "from",
          "type": "address"
        },
        {
          "internalType": "address",
          "name": "to",
          "type": "address"
        },
        {
          "internalType": "uint256",
          "name": "tokenId",
          "type": "uint256"
        },
        {
          "internalType": "bytes",
          "name": "data",
          "type": "bytes"
        }
      ],
      "name": "safeTransferFrom",
      "outputs": [],
      "stateMutability": "nonpayable",
      "type": "function"
    },
    {
      "inputs": [
        {
          "internalType": "address",
          "name": "operator",
          "type": "address"
        },
        {
          "internalType": "bool",
          "name": "approved",
          "type": "bool"
        }
      ],
      "name": "setApprovalForAll",
      "outputs": [],
      "stateMutability": "nonpayable",
      "type": "function"
    },
    {
      "inputs": [],
      "name": "symbol",
      "outputs": [
        {
          "internalType": "string",
          "name": "",
          "type": "string"
        }
      ],
      "stateMutability": "view",
      "type": "function"
    },
    {
      "inputs": [
        {
          "internalType": "uint256",
          "name": "index",
          "type": "uint256"
        }
      ],
      "name": "tokenByIndex",
      "outputs": [
        {
          "internalType": "uint256",
          "name": "",
          "type": "uint256"
        }
      ],
      "stateMutability": "view",
      "type": "function"
    },
    {
      "inputs": [
        {
          "internalType": "address",
          "name": "owner",
          "type": "address"
        },
        {
          "internalType": "uint256",
          "name": "index",
          "type": "uint256"
        }
      ],
      "name": "tokenOfOwnerByIndex",
      "outputs": [
        {
          "internalType": "uint256",
          "name": "",
          "type": "uint256"
        }
      ],
      "stateMutability": "view",
      "type": "function"
    },
    {
      "inputs": [],
      "name": "totalSupply",
      "outputs": [
        {
          "internalType": "uint256",
          "name": "",
          "type": "uint256"
        }
      ],
      "stateMutability": "view",
      "type": "function"
    },
    {
      "inputs": [
        {
          "internalType": "address",
          "name": "from",
          "type": "address"
        },
        {
          "internalType": "address",
          "name": "to",
          "type": "address"
        },
        {
          "internalType": "uint256",
          "name": "tokenId",
          "type": "uint256"
        }
      ],
      "name": "transferFrom",
      "outputs": [],
      "stateMutability": "nonpayable",
      "type": "function"
    },
    {
      "inputs": [
        {
          "internalType": "bytes4",
          "name": "interfaceId",
          "type": "bytes4"
        }
      ],
      "name": "supportsInterface",
      "outputs": [
        {
          "internalType": "bool",
          "name": "",
          "type": "bool"
        }
      ],
      "stateMutability": "view",
      "type": "function"
    },
    {
      "inputs": [
        {
          "internalType": "address",
          "name": "to",
          "type": "address"
        },
        {
          "internalType": "uint256",
          "name": "tokenId",
          "type": "uint256"
        },
        {
          "internalType": "string",
          "name": "_data",
          "type": "string"
        }
      ],
      "name": "mint",
      "outputs": [],
      "stateMutability": "nonpayable",
      "type": "function"
    },
    {
      "inputs": [],
      "name": "pause",
      "outputs": [],
      "stateMutability": "nonpayable",
      "type": "function"
    },
    {
      "inputs": [],
      "name": "unpause",
      "outputs": [],
      "stateMutability": "nonpayable",
      "type": "function"
    },
    {
      "inputs": [
        {
          "internalType": "uint256",
          "name": "tokenId",
          "type": "uint256"
        }
      ],
      "name": "tokenURI",
      "outputs": [
        {
          "internalType": "string",
          "name": "",
          "type": "string"
        }
      ],
      "stateMutability": "view",
      "type": "function"
    }
  ],
  "bytecode": "0x60a060405260006080908152600c906200001a908262000253565b503480156200002857600080fd5b5060405162002ac538038062002ac58339810160408190526200004b91620003ce565b828260016200005b838262000253565b5060026200006a828262000253565b5050600b805460ff191690555062000084600033620000f0565b620000b07f9f2df0fed2c77648de5860a4cc508cd0818c85b8b8a1ab4ceeef8d981c8956a633620000f0565b620000dc7f65d7a28e3265b37a6474929f336521b332c1681b933f6cb9f3376673440d862a33620000f0565b620000e78162000100565b5050506200045f565b620000fc82826200010e565b5050565b600c620000fc828262000253565b6000828152602081815260408083206001600160a01b038516845290915290205460ff16620000fc576000828152602081815260408083206001600160a01b03851684529091529020805460ff191660011790556200016a3390565b6001600160a01b0316816001600160a01b0316837f2f8788117e7eff1d82e926ec794901d17c78024a50270940304540a733656f0d60405160405180910390a45050565b634e487b7160e01b600052604160045260246000fd5b600181811c90821680620001d957607f821691505b602082108103620001fa57634e487b7160e01b600052602260045260246000fd5b50919050565b601f8211156200024e57600081815260208120601f850160051c81016020861015620002295750805b601f850160051c820191505b818110156200024a5782815560010162000235565b5050505b505050565b81516001600160401b038111156200026f576200026f620001ae565b6200028781620002808454620001c4565b8462000200565b602080601f831160018114620002bf5760008415620002a65750858301515b600019600386901b1c1916600185901b1785556200024a565b600085815260208120601f198616915b82811015620002f057888601518255948401946001909101908401620002cf565b50858210156200030f5787850151600019600388901b60f8161c191681555b5050505050600190811b01905550565b600082601f8301126200033157600080fd5b81516001600160401b03808211156200034e576200034e620001ae565b604051601f8301601f19908116603f01168101908282118183101715620003795762000379620001ae565b816040528381526020925086838588010111156200039657600080fd5b600091505b83821015620003ba57858201830151818301840152908201906200039b565b600093810190920192909252949350505050565b600080600060608486031215620003e457600080fd5b83516001600160401b0380821115620003fc57600080fd5b6200040a878388016200031f565b945060208601519150808211156200042157600080fd5b6200042f878388016200031f565b935060408601519150808211156200044657600080fd5b5062000455868287016200031f565b9150509250925092565b612656806200046f6000396000f3fe608060405234801561001057600080fd5b50600436106101cf5760003560e01c80635c975abb11610104578063a22cb465116100a2578063d539139311610071578063d5391393146103df578063d547741f14610406578063e63ab1e914610419578063e985e9c51461044057600080fd5b8063a22cb46514610393578063b88d4fde146103a6578063c87b56dd146103b9578063d3fc9864146103cc57600080fd5b80638456cb59116100de5780638456cb591461034457806391d148541461034c57806395d89b4114610383578063a217fddf1461038b57600080fd5b80635c975abb146103135780636352211e1461031e57806370a082311461033157600080fd5b80632f2ff15d116101715780633f4ba83a1161014b5780633f4ba83a146102d257806342842e0e146102da57806342966c68146102ed5780634f6ccce71461030057600080fd5b80632f2ff15d146102995780632f745c59146102ac57806336568abe146102bf57600080fd5b8063095ea7b3116101ad578063095ea7b31461023c57806318160ddd1461025157806323b872dd14610263578063248a9ca31461027657600080fd5b806301ffc9a7146101d457806306fdde03146101fc578063081812fc14610211575b600080fd5b6101e76101e236600461202d565b61047c565b60405190151581526020015b60405180910390f35b61020461048d565b6040516101f3919061209a565b61022461021f3660046120ad565b61051f565b6040516001600160a01b0390911681526020016101f3565b61024f61024a3660046120e2565b610546565b005b6009545b6040519081526020016101f3565b61024f61027136600461210c565b610660565b6102556102843660046120ad565b60009081526020819052604090206001015490565b61024f6102a7366004612148565b6106d8565b6102556102ba3660046120e2565b6106fd565b61024f6102cd366004612148565b6107a5565b61024f610831565b61024f6102e836600461210c565b6108d7565b61024f6102fb3660046120ad565b6108f2565b61025561030e3660046120ad565b610969565b600b5460ff166101e7565b61022461032c3660046120ad565b610a0d565b61025561033f366004612174565b610a72565b61024f610b0c565b6101e761035a366004612148565b6000918252602082815260408084206001600160a01b0393909316845291905290205460ff1690565b610204610bb0565b610255600081565b61024f6103a136600461218f565b610bbf565b61024f6103b4366004612257565b610bca565b6102046103c73660046120ad565b610c48565b61024f6103da3660046122d3565b610d73565b6102557f9f2df0fed2c77648de5860a4cc508cd0818c85b8b8a1ab4ceeef8d981c8956a681565b61024f610414366004612148565b610e23565b6102557f65d7a28e3265b37a6474929f336521b332c1681b933f6cb9f3376673440d862a81565b6101e761044e36600461233e565b6001600160a01b03918216600090815260066020908152604080832093909416825291909152205460ff1690565b600061048782610e48565b92915050565b60606001805461049c90612368565b80601f01602080910402602001604051908101604052809291908181526020018280546104c890612368565b80156105155780601f106104ea57610100808354040283529160200191610515565b820191906000526020600020905b8154815290600101906020018083116104f857829003601f168201915b5050505050905090565b600061052a82610e6d565b506000908152600560205260409020546001600160a01b031690565b600061055182610a0d565b9050806001600160a01b0316836001600160a01b0316036105c35760405162461bcd60e51b815260206004820152602160248201527f4552433732313a20617070726f76616c20746f2063757272656e74206f776e656044820152603960f91b60648201526084015b60405180910390fd5b336001600160a01b03821614806105df57506105df813361044e565b6106515760405162461bcd60e51b815260206004820152603d60248201527f4552433732313a20617070726f76652063616c6c6572206973206e6f7420746f60448201527f6b656e206f776e6572206f7220617070726f76656420666f7220616c6c00000060648201526084016105ba565b61065b8383610ed1565b505050565b61066b335b82610f3f565b6106cd5760405162461bcd60e51b815260206004820152602d60248201527f4552433732313a2063616c6c6572206973206e6f7420746f6b656e206f776e6560448201526c1c881bdc88185c1c1c9bdd9959609a1b60648201526084016105ba565b61065b838383610fbe565b6000828152602081905260409020600101546106f3816111ab565b61065b83836111b5565b600061070883610a72565b821061077c5760405162461bcd60e51b815260206004820152602b60248201527f455243373231456e756d657261626c653a206f776e657220696e646578206f7560448201527f74206f6620626f756e647300000000000000000000000000000000000000000060648201526084016105ba565b506001600160a01b03919091166000908152600760209081526040808320938352929052205490565b6001600160a01b03811633146108235760405162461bcd60e51b815260206004820152602f60248201527f416363657373436f6e74726f6c3a2063616e206f6e6c792072656e6f756e636560448201527f20726f6c657320666f722073656c66000000000000000000000000000000000060648201526084016105ba565b61082d8282611253565b5050565b61085b7f65d7a28e3265b37a6474929f336521b332c1681b933f6cb9f3376673440d862a3361035a565b6108cd5760405162461bcd60e51b815260206004820152603460248201527f4552433732314d6f636b436f6e74726163743a206d757374206861766520706160448201527f7573657220726f6c6520746f20756e706175736500000000000000000000000060648201526084016105ba565b6108d56112d2565b565b61065b83838360405180602001604052806000815250610bca565b6108fb33610665565b61095d5760405162461bcd60e51b815260206004820152602d60248201527f4552433732313a2063616c6c6572206973206e6f7420746f6b656e206f776e6560448201526c1c881bdc88185c1c1c9bdd9959609a1b60648201526084016105ba565b61096681611324565b50565b600061097460095490565b82106109e85760405162461bcd60e51b815260206004820152602c60248201527f455243373231456e756d657261626c653a20676c6f62616c20696e646578206f60448201527f7574206f6620626f756e6473000000000000000000000000000000000000000060648201526084016105ba565b600982815481106109fb576109fb6123a2565b90600052602060002001549050919050565b6000818152600360205260408120546001600160a01b0316806104875760405162461bcd60e51b815260206004820152601860248201527f4552433732313a20696e76616c696420746f6b656e204944000000000000000060448201526064016105ba565b60006001600160a01b038216610af05760405162461bcd60e51b815260206004820152602960248201527f4552433732313a2061646472657373207a65726f206973206e6f74206120766160448201527f6c6964206f776e6572000000000000000000000000000000000000000000000060648201526084016105ba565b506001600160a01b031660009081526004602052604090205490565b610b367f65d7a28e3265b37a6474929f336521b332c1681b933f6cb9f3376673440d862a3361035a565b610ba85760405162461bcd60e51b815260206004820152603260248201527f4552433732314d6f636b436f6e74726163743a206d757374206861766520706160448201527f7573657220726f6c6520746f207061757365000000000000000000000000000060648201526084016105ba565b6108d56113c7565b60606002805461049c90612368565b61082d338383611404565b610bd43383610f3f565b610c365760405162461bcd60e51b815260206004820152602d60248201527f4552433732313a2063616c6c6572206973206e6f7420746f6b656e206f776e6560448201526c1c881bdc88185c1c1c9bdd9959609a1b60648201526084016105ba565b610c42848484846114d2565b50505050565b6000818152600360205260409020546060906001600160a01b0316610cd55760405162461bcd60e51b815260206004820152602f60248201527f4552433732314d657461646174613a2055524920717565727920666f72206e6f60448201527f6e6578697374656e7420746f6b656e000000000000000000000000000000000060648201526084016105ba565b6000828152600d602052604090208054610cee90612368565b80601f0160208091040260200160405190810160405280929190818152602001828054610d1a90612368565b8015610d675780601f10610d3c57610100808354040283529160200191610d67565b820191906000526020600020905b815481529060010190602001808311610d4a57829003601f168201915b50505050509050919050565b610d9d7f9f2df0fed2c77648de5860a4cc508cd0818c85b8b8a1ab4ceeef8d981c8956a63361035a565b610e0f5760405162461bcd60e51b815260206004820152603160248201527f4552433732314d6f636b436f6e74726163743a206d7573742068617665206d6960448201527f6e74657220726f6c6520746f206d696e7400000000000000000000000000000060648201526084016105ba565b610e198383611550565b61065b82826116e9565b600082815260208190526040902060010154610e3e816111ab565b61065b8383611253565b60006001600160e01b0319821663780e9d6360e01b148061048757506104878261178b565b6000818152600360205260409020546001600160a01b03166109665760405162461bcd60e51b815260206004820152601860248201527f4552433732313a20696e76616c696420746f6b656e204944000000000000000060448201526064016105ba565b600081815260056020526040902080546001600160a01b0319166001600160a01b0384169081179091558190610f0682610a0d565b6001600160a01b03167f8c5be1e5ebec7d5bd14f71427d1e84f3dd0314c0f7b2291e5b200ac8c7c3b92560405160405180910390a45050565b600080610f4b83610a0d565b9050806001600160a01b0316846001600160a01b03161480610f9257506001600160a01b0380821660009081526006602090815260408083209388168352929052205460ff165b80610fb65750836001600160a01b0316610fab8461051f565b6001600160a01b0316145b949350505050565b826001600160a01b0316610fd182610a0d565b6001600160a01b0316146110355760405162461bcd60e51b815260206004820152602560248201527f4552433732313a207472616e736665722066726f6d20696e636f72726563742060448201526437bbb732b960d91b60648201526084016105ba565b6001600160a01b0382166110975760405162461bcd60e51b8152602060048201526024808201527f4552433732313a207472616e7366657220746f20746865207a65726f206164646044820152637265737360e01b60648201526084016105ba565b6110a483838360016117cb565b826001600160a01b03166110b782610a0d565b6001600160a01b03161461111b5760405162461bcd60e51b815260206004820152602560248201527f4552433732313a207472616e736665722066726f6d20696e636f72726563742060448201526437bbb732b960d91b60648201526084016105ba565b600081815260056020908152604080832080546001600160a01b03199081169091556001600160a01b0387811680865260048552838620805460001901905590871680865283862080546001019055868652600390945282852080549092168417909155905184937fddf252ad1be2c89b69c2b068fc378daa952ba7f163c4a11628f55a4df523b3ef91a4505050565b61096681336117d7565b6000828152602081815260408083206001600160a01b038516845290915290205460ff1661082d576000828152602081815260408083206001600160a01b03851684529091529020805460ff1916600117905561120f3390565b6001600160a01b0316816001600160a01b0316837f2f8788117e7eff1d82e926ec794901d17c78024a50270940304540a733656f0d60405160405180910390a45050565b6000828152602081815260408083206001600160a01b038516845290915290205460ff161561082d576000828152602081815260408083206001600160a01b0385168085529252808320805460ff1916905551339285917ff6391f5c32d9c69d2a47ea670b442974b53935d1edc7fd64eb21e047a839171b9190a45050565b6112da61184a565b600b805460ff191690557f5db9ee0a495bf2e6ff9c91a7834c1ba4fdd244a5e8aa4e537bd38aeae4b073aa335b6040516001600160a01b03909116815260200160405180910390a1565b600061132f82610a0d565b905061133f8160008460016117cb565b61134882610a0d565b600083815260056020908152604080832080546001600160a01b03199081169091556001600160a01b0385168085526004845282852080546000190190558785526003909352818420805490911690555192935084927fddf252ad1be2c89b69c2b068fc378daa952ba7f163c4a11628f55a4df523b3ef908390a45050565b6113cf61189c565b600b805460ff191660011790557f62e78cea01bee320cd4e420270b5ea74000d11b0c9f74754ebdbfc544b05a2586113073390565b816001600160a01b0316836001600160a01b0316036114655760405162461bcd60e51b815260206004820152601960248201527f4552433732313a20617070726f766520746f2063616c6c65720000000000000060448201526064016105ba565b6001600160a01b03838116600081815260066020908152604080832094871680845294825291829020805460ff191686151590811790915591519182527f17307eab39ab6107e8899845ad3d59bd9653f200f220920489ca2b5937696c31910160405180910390a3505050565b6114dd848484610fbe565b6114e9848484846118ef565b610c425760405162461bcd60e51b815260206004820152603260248201527f4552433732313a207472616e7366657220746f206e6f6e20455243373231526560448201527131b2b4bb32b91034b6b83632b6b2b73a32b960711b60648201526084016105ba565b6001600160a01b0382166115a65760405162461bcd60e51b815260206004820181905260248201527f4552433732313a206d696e7420746f20746865207a65726f206164647265737360448201526064016105ba565b6000818152600360205260409020546001600160a01b03161561160b5760405162461bcd60e51b815260206004820152601c60248201527f4552433732313a20746f6b656e20616c7265616479206d696e7465640000000060448201526064016105ba565b6116196000838360016117cb565b6000818152600360205260409020546001600160a01b03161561167e5760405162461bcd60e51b815260206004820152601c60248201527f4552433732313a20746f6b656e20616c7265616479206d696e7465640000000060448201526064016105ba565b6001600160a01b038216600081815260046020908152604080832080546001019055848352600390915280822080546001600160a01b0319168417905551839291907fddf252ad1be2c89b69c2b068fc378daa952ba7f163c4a11628f55a4df523b3ef908290a45050565b6000828152600360205260409020546001600160a01b03166117735760405162461bcd60e51b815260206004820152602c60248201527f4552433732314d657461646174613a2055524920736574206f66206e6f6e657860448201527f697374656e7420746f6b656e000000000000000000000000000000000000000060648201526084016105ba565b6000828152600d6020526040902061065b8282612406565b60006001600160e01b031982166380ac58cd60e01b14806117bc57506001600160e01b03198216635b5e139f60e01b145b80610487575061048782611a3b565b610c4284848484611a70565b6000828152602081815260408083206001600160a01b038516845290915290205460ff1661082d5761180881611af5565b611813836020611b07565b6040516020016118249291906124c6565b60408051601f198184030181529082905262461bcd60e51b82526105ba9160040161209a565b600b5460ff166108d55760405162461bcd60e51b815260206004820152601460248201527f5061757361626c653a206e6f742070617573656400000000000000000000000060448201526064016105ba565b600b5460ff16156108d55760405162461bcd60e51b815260206004820152601060248201527f5061757361626c653a207061757365640000000000000000000000000000000060448201526064016105ba565b60006001600160a01b0384163b15611a3057604051630a85bd0160e11b81526001600160a01b0385169063150b7a0290611933903390899088908890600401612547565b6020604051808303816000875af192505050801561196e575060408051601f3d908101601f1916820190925261196b91810190612583565b60015b611a16573d80801561199c576040519150601f19603f3d011682016040523d82523d6000602084013e6119a1565b606091505b508051600003611a0e5760405162461bcd60e51b815260206004820152603260248201527f4552433732313a207472616e7366657220746f206e6f6e20455243373231526560448201527131b2b4bb32b91034b6b83632b6b2b73a32b960711b60648201526084016105ba565b805181602001fd5b6001600160e01b031916630a85bd0160e11b149050610fb6565b506001949350505050565b60006001600160e01b03198216637965db0b60e01b148061048757506301ffc9a760e01b6001600160e01b0319831614610487565b611a7c84848484611cb7565b600b5460ff1615610c425760405162461bcd60e51b815260206004820152602b60248201527f4552433732315061757361626c653a20746f6b656e207472616e73666572207760448201527f68696c652070617573656400000000000000000000000000000000000000000060648201526084016105ba565b60606104876001600160a01b03831660145b60606000611b168360026125b6565b611b219060026125cd565b67ffffffffffffffff811115611b3957611b396121cb565b6040519080825280601f01601f191660200182016040528015611b63576020820181803683370190505b509050600360fc1b81600081518110611b7e57611b7e6123a2565b60200101906001600160f81b031916908160001a905350600f60fb1b81600181518110611bad57611bad6123a2565b60200101906001600160f81b031916908160001a9053506000611bd18460026125b6565b611bdc9060016125cd565b90505b6001811115611c61577f303132333435363738396162636465660000000000000000000000000000000085600f1660108110611c1d57611c1d6123a2565b1a60f81b828281518110611c3357611c336123a2565b60200101906001600160f81b031916908160001a90535060049490941c93611c5a816125e0565b9050611bdf565b508315611cb05760405162461bcd60e51b815260206004820181905260248201527f537472696e67733a20686578206c656e67746820696e73756666696369656e7460448201526064016105ba565b9392505050565b611cc384848484611dff565b6001811115611d3a5760405162461bcd60e51b815260206004820152603560248201527f455243373231456e756d657261626c653a20636f6e736563757469766520747260448201527f616e7366657273206e6f7420737570706f72746564000000000000000000000060648201526084016105ba565b816001600160a01b038516611d9657611d9181600980546000838152600a60205260408120829055600182018355919091527f6e1540171b6c0c960b71a7020d9f60077f6af931a8bbf590da0223dacf75c7af0155565b611db9565b836001600160a01b0316856001600160a01b031614611db957611db98582611e87565b6001600160a01b038416611dd557611dd081611f24565b611df8565b846001600160a01b0316846001600160a01b031614611df857611df88482611fd3565b5050505050565b6001811115610c42576001600160a01b03841615611e45576001600160a01b03841660009081526004602052604081208054839290611e3f9084906125f7565b90915550505b6001600160a01b03831615610c42576001600160a01b03831660009081526004602052604081208054839290611e7c9084906125cd565b909155505050505050565b60006001611e9484610a72565b611e9e91906125f7565b600083815260086020526040902054909150808214611ef1576001600160a01b03841660009081526007602090815260408083208584528252808320548484528184208190558352600890915290208190555b5060009182526008602090815260408084208490556001600160a01b039094168352600781528383209183525290812055565b600954600090611f36906001906125f7565b6000838152600a602052604081205460098054939450909284908110611f5e57611f5e6123a2565b906000526020600020015490508060098381548110611f7f57611f7f6123a2565b6000918252602080832090910192909255828152600a90915260408082208490558582528120556009805480611fb757611fb761260a565b6001900381819060005260206000200160009055905550505050565b6000611fde83610a72565b6001600160a01b039093166000908152600760209081526040808320868452825280832085905593825260089052919091209190915550565b6001600160e01b03198116811461096657600080fd5b60006020828403121561203f57600080fd5b8135611cb081612017565b60005b8381101561206557818101518382015260200161204d565b50506000910152565b6000815180845261208681602086016020860161204a565b601f01601f19169290920160200192915050565b602081526000611cb0602083018461206e565b6000602082840312156120bf57600080fd5b5035919050565b80356001600160a01b03811681146120dd57600080fd5b919050565b600080604083850312156120f557600080fd5b6120fe836120c6565b946020939093013593505050565b60008060006060848603121561212157600080fd5b61212a846120c6565b9250612138602085016120c6565b9150604084013590509250925092565b6000806040838503121561215b57600080fd5b8235915061216b602084016120c6565b90509250929050565b60006020828403121561218657600080fd5b611cb0826120c6565b600080604083850312156121a257600080fd5b6121ab836120c6565b9150602083013580151581146121c057600080fd5b809150509250929050565b634e487b7160e01b600052604160045260246000fd5b600067ffffffffffffffff808411156121fc576121fc6121cb565b604051601f8501601f19908116603f01168101908282118183101715612224576122246121cb565b8160405280935085815286868601111561223d57600080fd5b858560208301376000602087830101525050509392505050565b6000806000806080858703121561226d57600080fd5b612276856120c6565b9350612284602086016120c6565b925060408501359150606085013567ffffffffffffffff8111156122a757600080fd5b8501601f810187136122b857600080fd5b6122c7878235602084016121e1565b91505092959194509250565b6000806000606084860312156122e857600080fd5b6122f1846120c6565b925060208401359150604084013567ffffffffffffffff81111561231457600080fd5b8401601f8101861361232557600080fd5b612334868235602084016121e1565b9150509250925092565b6000806040838503121561235157600080fd5b61235a836120c6565b915061216b602084016120c6565b600181811c9082168061237c57607f821691505b60208210810361239c57634e487b7160e01b600052602260045260246000fd5b50919050565b634e487b7160e01b600052603260045260246000fd5b601f82111561065b57600081815260208120601f850160051c810160208610156123df5750805b601f850160051c820191505b818110156123fe578281556001016123eb565b505050505050565b815167ffffffffffffffff811115612420576124206121cb565b6124348161242e8454612368565b846123b8565b602080601f83116001811461246957600084156124515750858301515b600019600386901b1c1916600185901b1785556123fe565b600085815260208120601f198616915b8281101561249857888601518255948401946001909101908401612479565b50858210156124b65787850151600019600388901b60f8161c191681555b5050505050600190811b01905550565b7f416363657373436f6e74726f6c3a206163636f756e74200000000000000000008152600083516124fe81601785016020880161204a565b7f206973206d697373696e6720726f6c6520000000000000000000000000000000601791840191820152835161253b81602884016020880161204a565b01602801949350505050565b60006001600160a01b03808716835280861660208401525083604083015260806060830152612579608083018461206e565b9695505050505050565b60006020828403121561259557600080fd5b8151611cb081612017565b634e487b7160e01b600052601160045260246000fd5b8082028115828204841417610487576104876125a0565b80820180821115610487576104876125a0565b6000816125ef576125ef6125a0565b506000190190565b81810381811115610487576104876125a0565b634e487b7160e01b600052603160045260246000fdfea26469706673582212209c377b6f7ad1172808c1fd3bdbfaec3a7a3e72459c607594a875a7e358f062db64736f6c63430008110033",
  "immutableReferences": {},
  "source": "// SPDX-License-Identifier: MIT\n\npragma solidity ^0.8.0;\n\n\nimport \"@openzeppelin/contracts/access/AccessControl.sol\";\nimport \"@openzeppelin/contracts/utils/Context.sol\";\nimport \"@openzeppelin/contracts/utils/Counters.sol\";\nimport \"@openzeppelin/contracts/token/ERC721/ERC721.sol\";\nimport \"@openzeppelin/contracts/token/ERC721/extensions/ERC721Burnable.sol\";\nimport \"@openzeppelin/contracts/token/ERC721/extensions/ERC721Pausable.sol\";\nimport \"@openzeppelin/contracts/token/ERC721/extensions/ERC721Enumerable.sol\";\nimport \"@openzeppelin/contracts/utils/Strings.sol\";\n\ncontract ERC721MockContract is Context, AccessControl, ERC721Burnable, ERC721Enumerable, ERC721Pausable {\n    bytes32 public constant MINTER_ROLE = keccak256(\"MINTER_ROLE\");\n    bytes32 public constant PAUSER_ROLE = keccak256(\"PAUSER_ROLE\");\n    string private baseUrI = \"\";\n    using Strings for uint256;\n    mapping(uint256 => string) private _tokenData;\n\n    mapping(address => mapping(address => bool)) private _operatorApprovals;\n\n\n\n    function supportsInterface(bytes4 interfaceId) public view virtual override(ERC721, AccessControl, ERC721Enumerable) returns (bool) {\n        return super.supportsInterface(interfaceId);\n    }\n\n    constructor(string memory name, string memory symbol, string memory baseURI) ERC721(name, symbol) {\n        _setupRole(DEFAULT_ADMIN_ROLE, _msgSender());\n\n        _setupRole(MINTER_ROLE, _msgSender());\n        _setupRole(PAUSER_ROLE, _msgSender());\n\n        setBaseURI(baseURI);\n    }\n\n    function setBaseURI(string memory baseURI) internal {\n        baseUrI = baseURI;\n    }\n\n\n    function mint(address to, uint256 tokenId, string memory _data) public {\n        require(hasRole(MINTER_ROLE, _msgSender()), \"ERC721MockContract: must have minter role to mint\");\n        super._mint(to, tokenId);\n        _setTokenData(tokenId, _data);\n    }\n\n    function _setTokenData(uint256 tokenId, string memory _data) internal virtual {\n        require(_exists(tokenId), \"ERC721Metadata: URI set of nonexistent token\");\n        _tokenData[tokenId] = _data;\n    }\n\n\n    function pause() public {\n        require(hasRole(PAUSER_ROLE, _msgSender()), \"ERC721MockContract: must have pauser role to pause\");\n        _pause();\n    }\n\n    function unpause() public {\n        require(hasRole(PAUSER_ROLE, _msgSender()), \"ERC721MockContract: must have pauser role to unpause\");\n        _unpause();\n    }\n\n    function _beforeTokenTransfer(address from, address to, uint256 tokenId,uint256 batchSize) internal override(ERC721, ERC721Pausable, ERC721Enumerable) {\n        super._beforeTokenTransfer(from, to, tokenId,batchSize);\n    }\n\n    function tokenURI(uint256 tokenId) public view virtual override returns (string memory) {\n        require(_exists(tokenId), \"ERC721Metadata: URI query for nonexistent token\");\n        return _tokenData[tokenId] ;\n    }\n}\n",
  "sourcePath": "/Users/brett/workSpace/NFTSea/soonfarming/contracts/test/ERC721MockContract.sol",
  "compiler": {
    "name": "solc",
    "version": "0.8.17+commit.8df45f5f.Emscripten.clang"
  },
  "schemaVersion": "3.4.9",
  "updatedAt": "2022-12-16T07:02:14.989Z",
  "devdoc": {
    "kind": "dev",
    "methods": {
      "approve(address,uint256)": {
        "details": "See {IERC721-approve}."
      },
      "balanceOf(address)": {
        "details": "See {IERC721-balanceOf}."
      },
      "burn(uint256)": {
        "details": "Burns `tokenId`. See {ERC721-_burn}. Requirements: - The caller must own `tokenId` or be an approved operator."
      },
      "getApproved(uint256)": {
        "details": "See {IERC721-getApproved}."
      },
      "getRoleAdmin(bytes32)": {
        "details": "Returns the admin role that controls `role`. See {grantRole} and {revokeRole}. To change a role's admin, use {_setRoleAdmin}."
      },
      "grantRole(bytes32,address)": {
        "details": "Grants `role` to `account`. If `account` had not been already granted `role`, emits a {RoleGranted} event. Requirements: - the caller must have ``role``'s admin role. May emit a {RoleGranted} event."
      },
      "hasRole(bytes32,address)": {
        "details": "Returns `true` if `account` has been granted `role`."
      },
      "isApprovedForAll(address,address)": {
        "details": "See {IERC721-isApprovedForAll}."
      },
      "name()": {
        "details": "See {IERC721Metadata-name}."
      },
      "ownerOf(uint256)": {
        "details": "See {IERC721-ownerOf}."
      },
      "paused()": {
        "details": "Returns true if the contract is paused, and false otherwise."
      },
      "renounceRole(bytes32,address)": {
        "details": "Revokes `role` from the calling account. Roles are often managed via {grantRole} and {revokeRole}: this function's purpose is to provide a mechanism for accounts to lose their privileges if they are compromised (such as when a trusted device is misplaced). If the calling account had been revoked `role`, emits a {RoleRevoked} event. Requirements: - the caller must be `account`. May emit a {RoleRevoked} event."
      },
      "revokeRole(bytes32,address)": {
        "details": "Revokes `role` from `account`. If `account` had been granted `role`, emits a {RoleRevoked} event. Requirements: - the caller must have ``role``'s admin role. May emit a {RoleRevoked} event."
      },
      "safeTransferFrom(address,address,uint256)": {
        "details": "See {IERC721-safeTransferFrom}."
      },
      "safeTransferFrom(address,address,uint256,bytes)": {
        "details": "See {IERC721-safeTransferFrom}."
      },
      "setApprovalForAll(address,bool)": {
        "details": "See {IERC721-setApprovalForAll}."
      },
      "symbol()": {
        "details": "See {IERC721Metadata-symbol}."
      },
      "tokenByIndex(uint256)": {
        "details": "See {IERC721Enumerable-tokenByIndex}."
      },
      "tokenOfOwnerByIndex(address,uint256)": {
        "details": "See {IERC721Enumerable-tokenOfOwnerByIndex}."
      },
      "tokenURI(uint256)": {
        "details": "See {IERC721Metadata-tokenURI}."
      },
      "totalSupply()": {
        "details": "See {IERC721Enumerable-totalSupply}."
      },
      "transferFrom(address,address,uint256)": {
        "details": "See {IERC721-transferFrom}."
      }
    },
    "version": 1
  },
  "userdoc": {
    "kind": "user",
    "methods": {},
    "version": 1
  }
}