{
  "contractName": "mappingOfMapping",
  "abi": [
    {
      "inputs": [
        {
          "internalType": "address",
          "name": "",
          "type": "address"
        },
        {
          "internalType": "uint256",
          "name": "",
          "type": "uint256"
        }
      ],
      "name": "nftSellPrices",
      "outputs": [
        {
          "internalType": "uint256",
          "name": "",
          "type": "uint256"
        }
      ],
      "stateMutability": "view",
      "type": "function"
    },
    {
      "inputs": [
        {
          "internalType": "address",
          "name": "_add",
          "type": "address"
        }
      ],
      "name": "setPrice",
      "outputs": [],
      "stateMutability": "nonpayable",
      "type": "function"
    },
    {
      "inputs": [
        {
          "internalType": "uint256",
          "name": "_length",
          "type": "uint256"
        }
      ],
      "name": "rand",
      "outputs": [
        {
          "internalType": "uint256",
          "name": "",
          "type": "uint256"
        }
      ],
      "stateMutability": "view",
      "type": "function"
    }
  ],
  "bytecode": "0x608060405234801561001057600080fd5b506102ab806100206000396000f3fe608060405234801561001057600080fd5b50600436106100415760003560e01c80632530c905146100465780633b3247901461006b578063955c9cba14610080575b600080fd5b6100596100543660046101cc565b610093565b60405190815260200160405180910390f35b61007e61007936600461020e565b6100dd565b005b61005961008e366004610229565b61013b565b60008044426040516020016100b2929190918252602082015260400190565b60408051601f19818403018152919052805160209091012090506100d68382610253565b9392505050565b60408051600580825260c082019092526000916020820160a08036833750505073ffffffffffffffffffffffffffffffffffffffff8316600090815260208181526040909120825192935061013692909184019061016c565b505050565b6000602052816000526040600020818154811061015757600080fd5b90600052602060002001600091509150505481565b8280548282559060005260206000209081019282156101a7579160200282015b828111156101a757825182559160200191906001019061018c565b506101b39291506101b7565b5090565b5b808211156101b357600081556001016101b8565b6000602082840312156101de57600080fd5b5035919050565b803573ffffffffffffffffffffffffffffffffffffffff8116811461020957600080fd5b919050565b60006020828403121561022057600080fd5b6100d6826101e5565b6000806040838503121561023c57600080fd5b610245836101e5565b946020939093013593505050565b60008261027057634e487b7160e01b600052601260045260246000fd5b50069056fea26469706673582212201f504395034323b50290bd23c76076a4454313345dc5abaeeaf77a2776a7211b64736f6c63430008110033",
  "immutableReferences": {},
  "source": "pragma solidity ^0.8.0;\n\ncontract mappingOfMapping{\n    \n    \n    mapping(address => uint256[]) public nftSellPrices;\n\n\n    \n    function setPrice(address _add) public{ // ,;\n        uint256[] memory date = new uint256[](5); \n      //  date.push(uint256(1));\n        nftSellPrices[_add] = date; \n    }\n\n    function rand(uint256 _length) public view returns(uint256) {\n       uint256 random = uint256(keccak256(abi.encodePacked(block.difficulty, block.timestamp)));\n      return (random%_length);\n    }\n    \n\n}",
  "sourcePath": "/Users/brett/workSpace/NFTSea/soonfarming/contracts/test/Test.sol",
  "compiler": {
    "name": "solc",
    "version": "0.8.17+commit.8df45f5f.Emscripten.clang"
  },
  "schemaVersion": "3.4.9",
  "updatedAt": "2022-12-16T07:02:14.994Z",
  "devdoc": {
    "kind": "dev",
    "methods": {},
    "version": 1
  },
  "userdoc": {
    "kind": "user",
    "methods": {},
    "version": 1
  }
}