{
  "contractName": "Params",
  "abi": [
    {
      "anonymous": false,
      "inputs": [
        {
          "indexed": false,
          "internalType": "uint8",
          "name": "version",
          "type": "uint8"
        }
      ],
      "name": "Initialized",
      "type": "event"
    },
    {
      "anonymous": false,
      "inputs": [
        {
          "indexed": true,
          "internalType": "address",
          "name": "previousOwner",
          "type": "address"
        },
        {
          "indexed": true,
          "internalType": "address",
          "name": "newOwner",
          "type": "address"
        }
      ],
      "name": "OwnershipTransferred",
      "type": "event"
    },
    {
      "anonymous": false,
      "inputs": [
        {
          "indexed": true,
          "internalType": "string",
          "name": "_key",
          "type": "string"
        },
        {
          "indexed": false,
          "internalType": "uint256",
          "name": "_value",
          "type": "uint256"
        }
      ],
      "name": "Uint256ParamSetted",
      "type": "event"
    },
    {
      "inputs": [],
      "name": "owner",
      "outputs": [
        {
          "internalType": "address",
          "name": "",
          "type": "address"
        }
      ],
      "stateMutability": "view",
      "type": "function"
    },
    {
      "inputs": [],
      "name": "renounceOwnership",
      "outputs": [],
      "stateMutability": "nonpayable",
      "type": "function"
    },
    {
      "inputs": [
        {
          "internalType": "address",
          "name": "newOwner",
          "type": "address"
        }
      ],
      "name": "transferOwnership",
      "outputs": [],
      "stateMutability": "nonpayable",
      "type": "function"
    },
    {
      "inputs": [],
      "name": "initialize",
      "outputs": [],
      "stateMutability": "nonpayable",
      "type": "function"
    },
    {
      "inputs": [
        {
          "internalType": "string",
          "name": "_key",
          "type": "string"
        },
        {
          "internalType": "uint256",
          "name": "_value",
          "type": "uint256"
        }
      ],
      "name": "SetUint256Param",
      "outputs": [],
      "stateMutability": "nonpayable",
      "type": "function"
    },
    {
      "inputs": [
        {
          "internalType": "string",
          "name": "_key",
          "type": "string"
        }
      ],
      "name": "GetUint256Param",
      "outputs": [
        {
          "internalType": "uint256",
          "name": "",
          "type": "uint256"
        }
      ],
      "stateMutability": "view",
      "type": "function"
    }
  ],
  "bytecode": "0x608060405234801561001057600080fd5b50610696806100206000396000f3fe608060405234801561001057600080fd5b50600436106100725760003560e01c80638da5cb5b116100505780638da5cb5b146100af578063cd4fe8cd146100ca578063f2fde38b146100dd57600080fd5b80634e678e8014610077578063715018a61461009d5780638129fc1c146100a7575b600080fd5b61008a61008536600461057f565b6100f0565b6040519081526020015b60405180910390f35b6100a5610118565b005b6100a561012c565b6033546040516001600160a01b039091168152602001610094565b6100a56100d83660046105bc565b610259565b6100a56100eb366004610601565b6102ce565b60006065826040516101029190610631565b9081526020016040518091039020549050919050565b610120610344565b61012a600061039e565b565b600054610100900460ff161580801561014c5750600054600160ff909116105b806101665750303b158015610166575060005460ff166001145b6101dd5760405162461bcd60e51b815260206004820152602e60248201527f496e697469616c697a61626c653a20636f6e747261637420697320616c72656160448201527f647920696e697469616c697a656400000000000000000000000000000000000060648201526084015b60405180910390fd5b6000805460ff191660011790558015610200576000805461ff0019166101001790555b6102086103fd565b610210610468565b8015610256576000805461ff0019169055604051600181527f7f26b83ff96e1f2b6a682f133852f6798a09c465da95921460cefb38474024989060200160405180910390a15b50565b610261610344565b806065836040516102729190610631565b90815260405190819003602001812091909155610290908390610631565b604051908190038120828252907ffb95a454fb88a8138042f1b612100fff4b0a6159ea05e9b136eb293075809edf9060200160405180910390a25050565b6102d6610344565b6001600160a01b03811661033b5760405162461bcd60e51b815260206004820152602660248201527f4f776e61626c653a206e6577206f776e657220697320746865207a65726f206160448201526564647265737360d01b60648201526084016101d4565b6102568161039e565b6033546001600160a01b0316331461012a5760405162461bcd60e51b815260206004820181905260248201527f4f776e61626c653a2063616c6c6572206973206e6f7420746865206f776e657260448201526064016101d4565b603380546001600160a01b0383811673ffffffffffffffffffffffffffffffffffffffff19831681179093556040519116919082907f8be0079c531659141344cd1fd0a4f28419497f9722a3daafe3b4186f6b6457e090600090a35050565b600054610100900460ff1661012a5760405162461bcd60e51b815260206004820152602b60248201527f496e697469616c697a61626c653a20636f6e7472616374206973206e6f74206960448201526a6e697469616c697a696e6760a81b60648201526084016101d4565b600054610100900460ff166104d35760405162461bcd60e51b815260206004820152602b60248201527f496e697469616c697a61626c653a20636f6e7472616374206973206e6f74206960448201526a6e697469616c697a696e6760a81b60648201526084016101d4565b61012a3361039e565b634e487b7160e01b600052604160045260246000fd5b600082601f83011261050357600080fd5b813567ffffffffffffffff8082111561051e5761051e6104dc565b604051601f8301601f19908116603f01168101908282118183101715610546576105466104dc565b8160405283815286602085880101111561055f57600080fd5b836020870160208301376000602085830101528094505050505092915050565b60006020828403121561059157600080fd5b813567ffffffffffffffff8111156105a857600080fd5b6105b4848285016104f2565b949350505050565b600080604083850312156105cf57600080fd5b823567ffffffffffffffff8111156105e657600080fd5b6105f2858286016104f2565b95602094909401359450505050565b60006020828403121561061357600080fd5b81356001600160a01b038116811461062a57600080fd5b9392505050565b6000825160005b818110156106525760208186018101518583015201610638565b50600092019182525091905056fea264697066735822122055ab553028a46a4b0039544d240a36b74eca142fb2797281a7eaf288ff4061db64736f6c63430008110033",
  "immutableReferences": {},
  "source": "// SPDX-License-Identifier: MIT\n\npragma solidity ^0.8.0;\n\nimport \"@openzeppelin/contracts-upgradeable/proxy/utils/Initializable.sol\";\nimport \"@openzeppelin/contracts-upgradeable/access/OwnableUpgradeable.sol\";\n\ncontract Params is Initializable,OwnableUpgradeable {\n    function initialize()public initializer{\n        __Context_init_unchained();\n        __Ownable_init_unchained();\n    }\n    mapping(string => uint256) private uint256Params;\n\n    event Uint256ParamSetted(string indexed _key,uint256 _value);\n\n    function SetUint256Param(string memory _key,uint256 _value) external onlyOwner{\n        uint256Params[_key] = _value;\n        emit Uint256ParamSetted(_key,_value);\n    }\n\n\n    function GetUint256Param(string memory _key)public view returns(uint256){\n        return uint256Params[_key];\n    }\n}\n",
  "sourcePath": "/Users/brett/workSpace/NFTSea/soonfarming/contracts/Params.sol",
  "compiler": {
    "name": "solc",
    "version": "0.8.17+commit.8df45f5f.Emscripten.clang"
  },
  "schemaVersion": "3.4.9",
  "updatedAt": "2022-12-20T02:19:25.602Z",
  "devdoc": {
    "kind": "dev",
    "methods": {
      "owner()": {
        "details": "Returns the address of the current owner."
      },
      "renounceOwnership()": {
        "details": "Leaves the contract without owner. It will not be possible to call `onlyOwner` functions anymore. Can only be called by the current owner. NOTE: Renouncing ownership will leave the contract without an owner, thereby removing any functionality that is only available to the owner."
      },
      "transferOwnership(address)": {
        "details": "Transfers ownership of the contract to a new account (`newOwner`). Can only be called by the current owner."
      }
    },
    "version": 1
  },
  "userdoc": {
    "kind": "user",
    "methods": {},
    "version": 1
  }
}