{
  "contractName": "SoonFarming",
  "abi": [
    {
      "inputs": [],
      "stateMutability": "nonpayable",
      "type": "constructor"
    },
    {
      "anonymous": false,
      "inputs": [
        {
          "indexed": true,
          "internalType": "address",
          "name": "sender",
          "type": "address"
        },
        {
          "indexed": false,
          "internalType": "uint256",
          "name": "reward1",
          "type": "uint256"
        },
        {
          "indexed": false,
          "internalType": "uint256",
          "name": "reward2",
          "type": "uint256"
        },
        {
          "indexed": false,
          "internalType": "uint256",
          "name": "timestamp",
          "type": "uint256"
        }
      ],
      "name": "ClaimEvent",
      "type": "event"
    },
    {
      "anonymous": false,
      "inputs": [
        {
          "indexed": false,
          "internalType": "address",
          "name": "sender",
          "type": "address"
        },
        {
          "indexed": false,
          "internalType": "uint256",
          "name": "aheadTime",
          "type": "uint256"
        },
        {
          "indexed": false,
          "internalType": "uint256",
          "name": "timestamp",
          "type": "uint256"
        }
      ],
      "name": "CutShortEvent",
      "type": "event"
    },
    {
      "anonymous": false,
      "inputs": [
        {
          "indexed": true,
          "internalType": "address",
          "name": "previousOwner",
          "type": "address"
        },
        {
          "indexed": true,
          "internalType": "address",
          "name": "newOwner",
          "type": "address"
        }
      ],
      "name": "OwnershipTransferred",
      "type": "event"
    },
    {
      "anonymous": false,
      "inputs": [
        {
          "indexed": false,
          "internalType": "address",
          "name": "account",
          "type": "address"
        }
      ],
      "name": "Paused",
      "type": "event"
    },
    {
      "anonymous": false,
      "inputs": [
        {
          "indexed": true,
          "internalType": "bytes32",
          "name": "role",
          "type": "bytes32"
        },
        {
          "indexed": true,
          "internalType": "bytes32",
          "name": "previousAdminRole",
          "type": "bytes32"
        },
        {
          "indexed": true,
          "internalType": "bytes32",
          "name": "newAdminRole",
          "type": "bytes32"
        }
      ],
      "name": "RoleAdminChanged",
      "type": "event"
    },
    {
      "anonymous": false,
      "inputs": [
        {
          "indexed": true,
          "internalType": "bytes32",
          "name": "role",
          "type": "bytes32"
        },
        {
          "indexed": true,
          "internalType": "address",
          "name": "account",
          "type": "address"
        },
        {
          "indexed": true,
          "internalType": "address",
          "name": "sender",
          "type": "address"
        }
      ],
      "name": "RoleGranted",
      "type": "event"
    },
    {
      "anonymous": false,
      "inputs": [
        {
          "indexed": true,
          "internalType": "bytes32",
          "name": "role",
          "type": "bytes32"
        },
        {
          "indexed": true,
          "internalType": "address",
          "name": "account",
          "type": "address"
        },
        {
          "indexed": true,
          "internalType": "address",
          "name": "sender",
          "type": "address"
        }
      ],
      "name": "RoleRevoked",
      "type": "event"
    },
    {
      "anonymous": false,
      "inputs": [
        {
          "indexed": true,
          "internalType": "address",
          "name": "sender",
          "type": "address"
        },
        {
          "indexed": false,
          "internalType": "uint256",
          "name": "amount",
          "type": "uint256"
        },
        {
          "indexed": false,
          "internalType": "uint256",
          "name": "timestamp",
          "type": "uint256"
        }
      ],
      "name": "StakeEvent",
      "type": "event"
    },
    {
      "anonymous": false,
      "inputs": [
        {
          "indexed": true,
          "internalType": "address",
          "name": "sender",
          "type": "address"
        },
        {
          "indexed": false,
          "internalType": "uint256",
          "name": "unStakeAmount",
          "type": "uint256"
        },
        {
          "indexed": false,
          "internalType": "uint256",
          "name": "reward1",
          "type": "uint256"
        },
        {
          "indexed": false,
          "internalType": "uint256",
          "name": "reward2",
          "type": "uint256"
        },
        {
          "indexed": false,
          "internalType": "uint256",
          "name": "timestamp",
          "type": "uint256"
        }
      ],
      "name": "UnStakeEvent",
      "type": "event"
    },
    {
      "anonymous": false,
      "inputs": [
        {
          "indexed": false,
          "internalType": "address",
          "name": "account",
          "type": "address"
        }
      ],
      "name": "Unpaused",
      "type": "event"
    },
    {
      "anonymous": false,
      "inputs": [
        {
          "indexed": false,
          "internalType": "address",
          "name": "token",
          "type": "address"
        },
        {
          "indexed": false,
          "internalType": "address",
          "name": "account",
          "type": "address"
        },
        {
          "indexed": false,
          "internalType": "uint256",
          "name": "amount",
          "type": "uint256"
        }
      ],
      "name": "WithdrawEvent",
      "type": "event"
    },
    {
      "inputs": [],
      "name": "BLOCK_ROLE",
      "outputs": [
        {
          "internalType": "bytes32",
          "name": "",
          "type": "bytes32"
        }
      ],
      "stateMutability": "view",
      "type": "function",
      "constant": true
    },
    {
      "inputs": [],
      "name": "CUT_SHORT_ROLE",
      "outputs": [
        {
          "internalType": "bytes32",
          "name": "",
          "type": "bytes32"
        }
      ],
      "stateMutability": "view",
      "type": "function",
      "constant": true
    },
    {
      "inputs": [],
      "name": "DEFAULT_ADMIN_ROLE",
      "outputs": [
        {
          "internalType": "bytes32",
          "name": "",
          "type": "bytes32"
        }
      ],
      "stateMutability": "view",
      "type": "function",
      "constant": true
    },
    {
      "inputs": [],
      "name": "PAUSER_ROLE",
      "outputs": [
        {
          "internalType": "bytes32",
          "name": "",
          "type": "bytes32"
        }
      ],
      "stateMutability": "view",
      "type": "function",
      "constant": true
    },
    {
      "inputs": [],
      "name": "factory",
      "outputs": [
        {
          "internalType": "address",
          "name": "",
          "type": "address"
        }
      ],
      "stateMutability": "view",
      "type": "function",
      "constant": true
    },
    {
      "inputs": [
        {
          "internalType": "bytes32",
          "name": "role",
          "type": "bytes32"
        }
      ],
      "name": "getRoleAdmin",
      "outputs": [
        {
          "internalType": "bytes32",
          "name": "",
          "type": "bytes32"
        }
      ],
      "stateMutability": "view",
      "type": "function",
      "constant": true
    },
    {
      "inputs": [
        {
          "internalType": "bytes32",
          "name": "role",
          "type": "bytes32"
        },
        {
          "internalType": "address",
          "name": "account",
          "type": "address"
        }
      ],
      "name": "grantRole",
      "outputs": [],
      "stateMutability": "nonpayable",
      "type": "function"
    },
    {
      "inputs": [
        {
          "internalType": "bytes32",
          "name": "role",
          "type": "bytes32"
        },
        {
          "internalType": "address",
          "name": "account",
          "type": "address"
        }
      ],
      "name": "hasRole",
      "outputs": [
        {
          "internalType": "bool",
          "name": "",
          "type": "bool"
        }
      ],
      "stateMutability": "view",
      "type": "function",
      "constant": true
    },
    {
      "inputs": [],
      "name": "owner",
      "outputs": [
        {
          "internalType": "address",
          "name": "",
          "type": "address"
        }
      ],
      "stateMutability": "view",
      "type": "function",
      "constant": true
    },
    {
      "inputs": [],
      "name": "paused",
      "outputs": [
        {
          "internalType": "bool",
          "name": "",
          "type": "bool"
        }
      ],
      "stateMutability": "view",
      "type": "function",
      "constant": true
    },
    {
      "inputs": [],
      "name": "renounceOwnership",
      "outputs": [],
      "stateMutability": "nonpayable",
      "type": "function"
    },
    {
      "inputs": [
        {
          "internalType": "bytes32",
          "name": "role",
          "type": "bytes32"
        },
        {
          "internalType": "address",
          "name": "account",
          "type": "address"
        }
      ],
      "name": "renounceRole",
      "outputs": [],
      "stateMutability": "nonpayable",
      "type": "function"
    },
    {
      "inputs": [
        {
          "internalType": "bytes32",
          "name": "role",
          "type": "bytes32"
        },
        {
          "internalType": "address",
          "name": "account",
          "type": "address"
        }
      ],
      "name": "revokeRole",
      "outputs": [],
      "stateMutability": "nonpayable",
      "type": "function"
    },
    {
      "inputs": [
        {
          "internalType": "bytes4",
          "name": "interfaceId",
          "type": "bytes4"
        }
      ],
      "name": "supportsInterface",
      "outputs": [
        {
          "internalType": "bool",
          "name": "",
          "type": "bool"
        }
      ],
      "stateMutability": "view",
      "type": "function",
      "constant": true
    },
    {
      "inputs": [
        {
          "internalType": "uint256",
          "name": "",
          "type": "uint256"
        }
      ],
      "name": "timeStake",
      "outputs": [
        {
          "internalType": "uint256",
          "name": "time",
          "type": "uint256"
        },
        {
          "internalType": "uint256",
          "name": "amount",
          "type": "uint256"
        }
      ],
      "stateMutability": "view",
      "type": "function",
      "constant": true
    },
    {
      "inputs": [],
      "name": "totalStake",
      "outputs": [
        {
          "internalType": "uint256",
          "name": "",
          "type": "uint256"
        }
      ],
      "stateMutability": "view",
      "type": "function",
      "constant": true
    },
    {
      "inputs": [
        {
          "internalType": "address",
          "name": "newOwner",
          "type": "address"
        }
      ],
      "name": "transferOwnership",
      "outputs": [],
      "stateMutability": "nonpayable",
      "type": "function"
    },
    {
      "inputs": [
        {
          "internalType": "address",
          "name": "",
          "type": "address"
        }
      ],
      "name": "userSake",
      "outputs": [
        {
          "internalType": "uint256",
          "name": "",
          "type": "uint256"
        }
      ],
      "stateMutability": "view",
      "type": "function",
      "constant": true
    },
    {
      "inputs": [
        {
          "internalType": "address",
          "name": "",
          "type": "address"
        },
        {
          "internalType": "uint256",
          "name": "",
          "type": "uint256"
        }
      ],
      "name": "userTimeStake",
      "outputs": [
        {
          "internalType": "uint256",
          "name": "time",
          "type": "uint256"
        },
        {
          "internalType": "uint256",
          "name": "amount",
          "type": "uint256"
        }
      ],
      "stateMutability": "view",
      "type": "function",
      "constant": true
    },
    {
      "inputs": [
        {
          "internalType": "address",
          "name": "",
          "type": "address"
        }
      ],
      "name": "withdrawdReward1",
      "outputs": [
        {
          "internalType": "uint256",
          "name": "",
          "type": "uint256"
        }
      ],
      "stateMutability": "view",
      "type": "function",
      "constant": true
    },
    {
      "inputs": [
        {
          "internalType": "address",
          "name": "",
          "type": "address"
        }
      ],
      "name": "withdrawdReward2",
      "outputs": [
        {
          "internalType": "uint256",
          "name": "",
          "type": "uint256"
        }
      ],
      "stateMutability": "view",
      "type": "function",
      "constant": true
    },
    {
      "inputs": [
        {
          "internalType": "string",
          "name": "name_",
          "type": "string"
        },
        {
          "internalType": "address",
          "name": "_stakeTokenAddr",
          "type": "address"
        },
        {
          "internalType": "uint256",
          "name": "_rewardTokenNumber",
          "type": "uint256"
        },
        {
          "internalType": "address",
          "name": "_rewardToken1Addr",
          "type": "address"
        },
        {
          "internalType": "address",
          "name": "_rewardToken2Addr",
          "type": "address"
        },
        {
          "internalType": "uint256",
          "name": "_reward1",
          "type": "uint256"
        },
        {
          "internalType": "uint256",
          "name": "_reward2",
          "type": "uint256"
        },
        {
          "internalType": "uint256",
          "name": "_beginTime",
          "type": "uint256"
        },
        {
          "internalType": "uint256",
          "name": "_endTime",
          "type": "uint256"
        }
      ],
      "name": "initialize",
      "outputs": [],
      "stateMutability": "nonpayable",
      "type": "function"
    },
    {
      "inputs": [],
      "name": "pause",
      "outputs": [],
      "stateMutability": "nonpayable",
      "type": "function"
    },
    {
      "inputs": [],
      "name": "unpause",
      "outputs": [],
      "stateMutability": "nonpayable",
      "type": "function"
    },
    {
      "inputs": [
        {
          "internalType": "uint256",
          "name": "_aheadTime",
          "type": "uint256"
        }
      ],
      "name": "cutShort",
      "outputs": [],
      "stateMutability": "nonpayable",
      "type": "function"
    },
    {
      "inputs": [],
      "name": "name",
      "outputs": [
        {
          "internalType": "string",
          "name": "",
          "type": "string"
        }
      ],
      "stateMutability": "view",
      "type": "function",
      "constant": true
    },
    {
      "inputs": [],
      "name": "getFarmStakeSize",
      "outputs": [
        {
          "internalType": "uint256",
          "name": "",
          "type": "uint256"
        }
      ],
      "stateMutability": "view",
      "type": "function",
      "constant": true
    },
    {
      "inputs": [
        {
          "internalType": "address",
          "name": "_account",
          "type": "address"
        }
      ],
      "name": "getReward",
      "outputs": [
        {
          "internalType": "uint256",
          "name": "",
          "type": "uint256"
        },
        {
          "internalType": "uint256",
          "name": "",
          "type": "uint256"
        }
      ],
      "stateMutability": "view",
      "type": "function",
      "constant": true
    },
    {
      "inputs": [],
      "name": "getTotalStake",
      "outputs": [
        {
          "internalType": "uint256",
          "name": "",
          "type": "uint256"
        }
      ],
      "stateMutability": "view",
      "type": "function",
      "constant": true
    },
    {
      "inputs": [
        {
          "internalType": "address",
          "name": "account",
          "type": "address"
        }
      ],
      "name": "getUserStake",
      "outputs": [
        {
          "internalType": "uint256",
          "name": "userStake",
          "type": "uint256"
        }
      ],
      "stateMutability": "view",
      "type": "function",
      "constant": true
    },
    {
      "inputs": [],
      "name": "getaAtivityTime",
      "outputs": [
        {
          "internalType": "uint256",
          "name": "",
          "type": "uint256"
        },
        {
          "internalType": "uint256",
          "name": "",
          "type": "uint256"
        }
      ],
      "stateMutability": "view",
      "type": "function",
      "constant": true
    },
    {
      "inputs": [
        {
          "internalType": "uint256",
          "name": "_amount",
          "type": "uint256"
        }
      ],
      "name": "stake",
      "outputs": [],
      "stateMutability": "nonpayable",
      "type": "function"
    },
    {
      "inputs": [
        {
          "internalType": "uint256",
          "name": "_amount",
          "type": "uint256"
        }
      ],
      "name": "unStake",
      "outputs": [
        {
          "internalType": "uint256",
          "name": "",
          "type": "uint256"
        },
        {
          "internalType": "uint256",
          "name": "",
          "type": "uint256"
        }
      ],
      "stateMutability": "nonpayable",
      "type": "function"
    },
    {
      "inputs": [],
      "name": "claim",
      "outputs": [
        {
          "internalType": "uint256",
          "name": "",
          "type": "uint256"
        },
        {
          "internalType": "uint256",
          "name": "",
          "type": "uint256"
        }
      ],
      "stateMutability": "nonpayable",
      "type": "function"
    },
    {
      "inputs": [
        {
          "internalType": "address",
          "name": "token",
          "type": "address"
        },
        {
          "internalType": "address",
          "name": "account",
          "type": "address"
        },
        {
          "internalType": "uint256",
          "name": "amount",
          "type": "uint256"
        }
      ],
      "name": "withdraw",
      "outputs": [],
      "stateMutability": "payable",
      "type": "function",
      "payable": true
    }
  ],
  "bytecode": "0x608060405260028055600160165534801561001957600080fd5b506001805460ff1916905561002d33610044565b600480546001600160a01b0319163317905561009e565b600180546001600160a01b03838116610100818102610100600160a81b031985161790945560405193909204169182907f8be0079c531659141344cd1fd0a4f28419497f9722a3daafe3b4186f6b6457e090600090a35050565b61324c80620000ae6000396000f3fe6080604052600436106102345760003560e01c80637bc7422511610138578063a694fc3a116100b0578063d547741f1161007f578063e63ab1e911610064578063e63ab1e914610699578063f2fde38b146106cd578063fbb386e8146106ed57600080fd5b8063d547741f14610666578063d9caed121461068657600080fd5b8063a694fc3a146105d0578063bbadc93a146105f0578063c00007b014610626578063c45a01551461064657600080fd5b80638b0e9f3f116101075780638da5cb5b116100ec5780638da5cb5b1461054057806391d1485414610577578063a217fddf146105bb57600080fd5b80638b0e9f3f146104f65780638d4d80141461050c57600080fd5b80637bc74225146104975780637f44e634146104ac5780638456cb59146104cc5780638546c67b146104e157600080fd5b806331ccaac3116101cb5780634e71d92d1161019a5780635d3eea911161017f5780635d3eea9114610442578063715018a6146104625780637a1303c41461047757600080fd5b80634e71d92d146104155780635c975abb1461042a57600080fd5b806331ccaac31461039357806336568abe146103b35780633f4ba83a146103d3578063407fca18146103e857600080fd5b806318421e2c1161020757806318421e2c146102ed5780632358956c1461031a578063248a9ca3146103435780632f2ff15d1461037357600080fd5b806301ffc9a71461023957806306fdde031461026e57806308bad84f146102905780630f252dd0146102cb575b600080fd5b34801561024557600080fd5b50610259610254366004612cb8565b610721565b60405190151581526020015b60405180910390f35b34801561027a57600080fd5b50610283610758565b6040516102659190612d06565b34801561029c57600080fd5b506102bd6102ab366004612d55565b60116020526000908152604090205481565b604051908152602001610265565b3480156102d757600080fd5b506102eb6102e6366004612d70565b6107ea565b005b3480156102f957600080fd5b506102bd610308366004612d55565b60126020526000908152604090205481565b34801561032657600080fd5b50600d54600e545b60408051928352602083019190915201610265565b34801561034f57600080fd5b506102bd61035e366004612d70565b60009081526020819052604090206001015490565b34801561037f57600080fd5b506102eb61038e366004612d89565b610a61565b34801561039f57600080fd5b5061032e6103ae366004612d70565b610a8b565b3480156103bf57600080fd5b506102eb6103ce366004612d89565b610ab9565b3480156103df57600080fd5b506102eb610b45565b3480156103f457600080fd5b506102bd610403366004612d55565b60136020526000908152604090205481565b34801561042157600080fd5b5061032e610bd6565b34801561043657600080fd5b5060015460ff16610259565b34801561044e57600080fd5b5061032e61045d366004612d70565b610e22565b34801561046e57600080fd5b506102eb6112c2565b34801561048357600080fd5b506102eb610492366004612dcb565b6112d4565b3480156104a357600080fd5b506010546102bd565b3480156104b857600080fd5b5061032e6104c7366004612edd565b6113ed565b3480156104d857600080fd5b506102eb611429565b3480156104ed57600080fd5b506014546102bd565b34801561050257600080fd5b506102bd60105481565b34801561051857600080fd5b506102bd7f79449d4cc0fa7540a6221b06de02b479e06d8fb8e6d1f44d1e422fbe528219df81565b34801561054c57600080fd5b5060015461010090046001600160a01b03165b6040516001600160a01b039091168152602001610265565b34801561058357600080fd5b50610259610592366004612d89565b6000918252602082815260408084206001600160a01b0393909316845291905290205460ff1690565b3480156105c757600080fd5b506102bd600081565b3480156105dc57600080fd5b506102eb6105eb366004612d70565b6114b8565b3480156105fc57600080fd5b506102bd61060b366004612d55565b6001600160a01b031660009081526011602052604090205490565b34801561063257600080fd5b5061032e610641366004612d55565b6118f0565b34801561065257600080fd5b5060045461055f906001600160a01b031681565b34801561067257600080fd5b506102eb610681366004612d89565b611e2a565b6102eb610694366004612f07565b611e4f565b3480156106a557600080fd5b506102bd7f65d7a28e3265b37a6474929f336521b332c1681b933f6cb9f3376673440d862a81565b3480156106d957600080fd5b506102eb6106e8366004612d55565b611f82565b3480156106f957600080fd5b506102bd7fefe866497efea00aa7574b13e86f62ebb584dfdf8dd4654ccc38107eb91840b881565b60006001600160e01b03198216637965db0b60e01b148061075257506301ffc9a760e01b6001600160e01b03198316145b92915050565b60606003805461076790612f43565b80601f016020809104026020016040519081016040528092919081815260200182805461079390612f43565b80156107e05780601f106107b5576101008083540402835291602001916107e0565b820191906000526020600020905b8154815290600101906020018083116107c357829003601f168201915b5050505050905090565b6108147f79449d4cc0fa7540a6221b06de02b479e06d8fb8e6d1f44d1e422fbe528219df33611ffb565b806108255750610825600033611ffb565b6108765760405162461bcd60e51b815260206004820152601f60248201527f536f6f6e4661726d696e673a7065726d697373696f6e2064656e69656420210060448201526064015b60405180910390fd5b60015460ff16156108dc5760405162461bcd60e51b815260206004820152602a60248201527f536f6f6e4661726d696e673a207374616b652073757370656e64656420647565604482015269081d1bc81c185d5cd95960b21b606482015260840161086d565b600e5442101561093e5760405162461bcd60e51b815260206004820152602760248201527f536f6f6e4661726d696e673a20626c6f636b2e74696d657374616d70203e3d20604482015266656e6454696d6560c81b606482015260840161086d565b804211156109b45760405162461bcd60e51b815260206004820152602a60248201527f536f6f6e4661726d696e673a20626c6f636b2e74696d657374616d70203c3d2060448201527f5f616865616454696d6500000000000000000000000000000000000000000000606482015260840161086d565b600d54811180156109c75750600e548111155b610a1f5760405162461bcd60e51b8152602060048201526024808201527f536f6f6e4661726d696e673a205468652074696d652072616e67652069732077604482015263726f6e6760e01b606482015260840161086d565b600f8190556040805182815242602082015233917f9dbaf9c586508abc91d6ee4e67d3c7a82ccb09bca5d9fe2c3b690f27b7e0a256910160405180910390a250565b600082815260208190526040902060010154610a7c81612079565b610a868383612083565b505050565b60148181548110610a9b57600080fd5b60009182526020909120600290910201805460019091015490915082565b6001600160a01b0381163314610b375760405162461bcd60e51b815260206004820152602f60248201527f416363657373436f6e74726f6c3a2063616e206f6e6c792072656e6f756e636560448201527f20726f6c657320666f722073656c660000000000000000000000000000000000606482015260840161086d565b610b418282612121565b5050565b610b6f7f65d7a28e3265b37a6474929f336521b332c1681b933f6cb9f3376673440d862a33611ffb565b80610b805750610b80600033611ffb565b610bcc5760405162461bcd60e51b815260206004820152601f60248201527f536f6f6e4661726d696e673a7065726d697373696f6e2064656e696564202100604482015260640161086d565b610bd46121a0565b565b600080601654600114610c1e5760405162461bcd60e51b815260206004820152601060248201526f14dbdbdb9cddd85c0e881313d0d2d15160821b604482015260640161086d565b6000601655610c2c336121f2565b15610c885760405162461bcd60e51b815260206004820152602660248201527f536f6f6e4661726d696e673a546865792061726520626c61636b6c697374656460448201526520757365727360d01b606482015260840161086d565b60015460ff1615610cee5760405162461bcd60e51b815260206004820152602a60248201527f536f6f6e4661726d696e673a207374616b652073757370656e64656420647565604482015269081d1bc81c185d5cd95960b21b606482015260840161086d565b600080610cfa33612266565b91509150816000148015610d0c575080155b15610d1f57600080935093505050610e19565b3360009081526012602052604081208054849290610d3e908490612f93565b90915550503360009081526013602052604081208054839290610d62908490612f93565b90915550508115610d9c57600754610d84906001600160a01b0316338461262d565b50600754610d9c906001600160a01b0316338461271e565b8015610dd157600854610db9906001600160a01b0316338361262d565b50600854610dd1906001600160a01b0316338361271e565b60408051838152602081018390524281830152905133917f4e745e036dca0ed1c20fb17deda6530bb4739fa43fbeb8e13854f01388c67cc9919081900360600190a290925090505b60016016559091565b600080601654600114610e6a5760405162461bcd60e51b815260206004820152601060248201526f14dbdbdb9cddd85c0e881313d0d2d15160821b604482015260640161086d565b6000601655610e78336121f2565b15610ed45760405162461bcd60e51b815260206004820152602660248201527f536f6f6e4661726d696e673a546865792061726520626c61636b6c697374656460448201526520757365727360d01b606482015260840161086d565b60015460ff1615610f3a5760405162461bcd60e51b815260206004820152602a60248201527f536f6f6e4661726d696e673a207374616b652073757370656e64656420647565604482015269081d1bc81c185d5cd95960b21b606482015260840161086d565b42600d541115610fb25760405162461bcd60e51b815260206004820152603f60248201527f536f6f6e4661726d696e673a5468652072656c65617365206f6620746865207060448201527f6c65646765206d75737420626520616674657220746865206f70656e696e6700606482015260840161086d565b336000908152601160205260409020548311156110115760405162461bcd60e51b815260206004820152601f60248201527f536f6f6e4661726d696e673a7573657253616b65203e3d20756e5374616b6500604482015260640161086d565b600083116110615760405162461bcd60e51b815260206004820152601760248201527f536f6f6e4661726d696e673a5f616d6f756e74203e2030000000000000000000604482015260640161086d565b60008061106d33612266565b33600090815260126020526040902054919350915061108d908390612f93565b336000908152601260209081526040808320939093556013905220546110b4908290612f93565b336000908152601360209081526040808320939093556011905220546110db908690612fa6565b3360009081526011602052604081209190915560108054879290611100908490612fa6565b909155505060408051808201825242808252601054602080840191825260148054600181810183556000928352865160029283027fce6d7b5282bd9a3661ae061feed1dbda4e52ab073b1f9285be6e155d9c38d4ec81019190915594517fce6d7b5282bd9a3661ae061feed1dbda4e52ab073b1f9285be6e155d9c38d4ed9095019490945586518088018852948552338083526011845287832054868501908152818452601585529783208054808701825590845293909220855193909102019182559451910155600554919290916111e6916001600160a01b0391909116908961262d565b506005546111fe906001600160a01b0316338961271e565b83156112335760075461121b906001600160a01b0316338661262d565b50600754611233906001600160a01b0316338661271e565b821561126857600854611250906001600160a01b0316338561262d565b50600854611268906001600160a01b0316338561271e565b604080518881526020810186905290810184905242606082015233907f4a99c3c67e9034a8e003a9be8be72d12c60a5a0a492e3d1f8346fea1bd26c6259060800160405180910390a2505060016016559094909350915050565b6112ca612855565b610bd460006128b5565b6004546001600160a01b0316331461132e5760405162461bcd60e51b815260206004820152601660248201527f536f6f6e4661726d696e673a20464f5242494444454e00000000000000000000604482015260640161086d565b600361133a8a82612fff565b50600580546001600160a01b03808b1673ffffffffffffffffffffffffffffffffffffffff19928316179092556006899055600780548984169083161790556008805492881692909116919091179055600b849055600c839055600d829055600e81905560006113aa8383612fa6565b9050600254816113ba91906130bf565b6113c490866130bf565b6009556002546113d490826130bf565b6113de90856130bf565b600a5550505050505050505050565b6015602052816000526040600020818154811061140957600080fd5b600091825260209091206002909102018054600190910154909250905082565b6114537f65d7a28e3265b37a6474929f336521b332c1681b933f6cb9f3376673440d862a33611ffb565b806114645750611464600033611ffb565b6114b05760405162461bcd60e51b815260206004820152601f60248201527f536f6f6e4661726d696e673a7065726d697373696f6e2064656e696564202100604482015260640161086d565b610bd4612926565b6016546001146114fd5760405162461bcd60e51b815260206004820152601060248201526f14dbdbdb9cddd85c0e881313d0d2d15160821b604482015260640161086d565b600060165561150b336121f2565b156115675760405162461bcd60e51b815260206004820152602660248201527f536f6f6e4661726d696e673a546865792061726520626c61636b6c697374656460448201526520757365727360d01b606482015260840161086d565b60015460ff16156115cd5760405162461bcd60e51b815260206004820152602a60248201527f536f6f6e4661726d696e673a207374616b652073757370656e64656420647565604482015269081d1bc81c185d5cd95960b21b606482015260840161086d565b42600d54111580156115e15750600e544211155b61163c5760405162461bcd60e51b815260206004820152602660248201527f536f6f6e4661726d696e673a204e6f742077697468696e20746865207374616b604482015265652074696d6560d01b606482015260840161086d565b6005546040516370a0823160e01b81523360048201526000916001600160a01b0316906370a0823190602401602060405180830381865afa158015611685573d6000803e3d6000fd5b505050506040513d601f19601f820116820180604052508101906116a991906130e1565b9050818110156117215760405162461bcd60e51b815260206004820152602a60248201527f536f6f6e4661726d696e673a4c7042616c616e6365206e6f742073756666696360448201527f69656e742066756e647300000000000000000000000000000000000000000000606482015260840161086d565b6005546040516323b872dd60e01b8152336004820152306024820152604481018490526001600160a01b03909116906323b872dd906064016020604051808303816000875af1158015611778573d6000803e3d6000fd5b505050506040513d601f19601f8201168201806040525081019061179c91906130fa565b5081601060008282546117af9190612f93565b909155505033600090815260116020526040812080548492906117d3908490612f93565b909155505060408051808201825242808252601054602080840191825260148054600181810183556000928352865160029283027fce6d7b5282bd9a3661ae061feed1dbda4e52ab073b1f9285be6e155d9c38d4ec81019190915594517fce6d7b5282bd9a3661ae061feed1dbda4e52ab073b1f9285be6e155d9c38d4ed909501949094558651808801885285815233808452601185528884205482860190815281855260158652898520805480890182559086529590942082519590930290920193845591519290930191909155935192939290917f9dbaf9c586508abc91d6ee4e67d3c7a82ccb09bca5d9fe2c3b690f27b7e0a256916118dd91888252602082015260400190565b60405180910390a2505060016016555050565b600080600080600060156000876001600160a01b03166001600160a01b03168152602001908152602001600020805480602002602001604051908101604052809291908181526020016000905b828210156119835783829060005260206000209060020201604051806040016040529081600082015481526020016001820154815250508152602001906001019061193d565b50505050905060005b8151811015611cb75760008282815181106119a9576119a961311c565b60209081029190910181015180519181015190925060006119c983612961565b90506119d6856001612f93565b86511115611aae576000866119ec876001612f93565b815181106119fc576119fc61311c565b6020026020010151905060008160000151905060006002548683611a209190612fa6565b600954611a2d9190613132565b611a3791906130bf565b905060006002548784611a4a9190612fa6565b600a54611a579190613132565b611a6191906130bf565b905084611a6e8784613132565b611a7891906130bf565b611a82908d612f93565b9b5084611a8f8783613132565b611a9991906130bf565b611aa3908c612f93565b9a5050505050611ca0565b600e544211158015611ac05750600f54155b15611b81576001600160a01b038b16600090815260116020526040812054600254909190611aee8642612fa6565b600954611afb9190613132565b611b0591906130bf565b905060006002548642611b189190612fa6565b600a54611b259190613132565b611b2f91906130bf565b601054909150611b3f8484613132565b611b4991906130bf565b611b53908c612f93565b601054909b50611b638483613132565b611b6d91906130bf565b611b77908b612f93565b9950505050611ca0565b600f5415611be2576001600160a01b038b16600090815260116020526040812054600254600f54919291611bb6908790612fa6565b600954611bc39190613132565b611bcd91906130bf565b9050600060025486600f54611b189190612fa6565b6001600160a01b038b16600090815260116020526040812054600254600e54919291611c0f908790612fa6565b600954611c1c9190613132565b611c2691906130bf565b9050600060025486600e54611c3b9190612fa6565b600a54611c489190613132565b611c5291906130bf565b601054909150611c628484613132565b611c6c91906130bf565b611c76908c612f93565b601054909b50611c868483613132565b611c9091906130bf565b611c9a908b612f93565b99505050505b505050508080611caf90613149565b91505061198c565b506001600160a01b038616600090815260126020526040902054831015611d465760405162461bcd60e51b815260206004820152602860248201527f536f6f6e4661726d696e673a5f72657761726431203e3d20776974686472617760448201527f6452657761726431000000000000000000000000000000000000000000000000606482015260840161086d565b6001600160a01b038616600090815260136020526040902054821015611dd45760405162461bcd60e51b815260206004820152602860248201527f536f6f6e4661726d696e673a5f72657761726432203e3d20776974686472617760448201527f6452657761726432000000000000000000000000000000000000000000000000606482015260840161086d565b6001600160a01b038616600090815260126020526040902054611df79084612fa6565b6001600160a01b038716600090815260136020526040902054909350611e1d9083612fa6565b9296929550919350505050565b600082815260208190526040902060010154611e4581612079565b610a868383612121565b601654600114611e945760405162461bcd60e51b815260206004820152601060248201526f14dbdbdb9cddd85c0e881313d0d2d15160821b604482015260640161086d565b600060168190553381527fad3228b676f7d3cd4284a5443f17f1962b36e491b30a40b2405849e597ba5fb5602052604090205460ff16611f165760405162461bcd60e51b815260206004820152601f60248201527f536f6f6e4661726d696e673a7065726d697373696f6e2064656e696564202100604482015260640161086d565b611f2183838361262d565b50611f2d83838361271e565b604080516001600160a01b038086168252841660208201529081018290527f93cb7b4ba12c5bb07f02e52c4e43788d8f4db1e66e9d30aaaeffc5ab325b810c9060600160405180910390a15050600160165550565b611f8a612855565b6001600160a01b038116611fef5760405162461bcd60e51b815260206004820152602660248201527f4f776e61626c653a206e6577206f776e657220697320746865207a65726f206160448201526564647265737360d01b606482015260840161086d565b611ff8816128b5565b50565b6004805460405163085eb5d560e41b81529182018490526001600160a01b0383811660248401526000929116906385eb5d5090604401602060405180830381865afa15801561204e573d6000803e3d6000fd5b505050506040513d601f19601f8201168201806040525081019061207291906130fa565b9392505050565b611ff881336129e5565b6000828152602081815260408083206001600160a01b038516845290915290205460ff16610b41576000828152602081815260408083206001600160a01b03851684529091529020805460ff191660011790556120dd3390565b6001600160a01b0316816001600160a01b0316837f2f8788117e7eff1d82e926ec794901d17c78024a50270940304540a733656f0d60405160405180910390a45050565b6000828152602081815260408083206001600160a01b038516845290915290205460ff1615610b41576000828152602081815260408083206001600160a01b0385168085529252808320805460ff1916905551339285917ff6391f5c32d9c69d2a47ea670b442974b53935d1edc7fd64eb21e047a839171b9190a45050565b6121a8612a58565b6001805460ff191690557f5db9ee0a495bf2e6ff9c91a7834c1ba4fdd244a5e8aa4e537bd38aeae4b073aa335b6040516001600160a01b03909116815260200160405180910390a1565b6004805460405163ca88bd5b60e01b81526001600160a01b03848116938201939093526000929091169063ca88bd5b90602401602060405180830381865afa158015612242573d6000803e3d6000fd5b505050506040513d601f19601f8201168201806040525081019061075291906130fa565b600080600080600060156000876001600160a01b03166001600160a01b03168152602001908152602001600020805480602002602001604051908101604052809291908181526020016000905b828210156122f9578382906000526020600020906002020160405180604001604052908160008201548152602001600182015481525050815260200190600101906122b3565b50505050905060005b8151811015611cb757600082828151811061231f5761231f61311c565b602090810291909101810151805191810151909250600061233f83612961565b905061234c856001612f93565b8651111561242457600086612362876001612f93565b815181106123725761237261311c565b60200260200101519050600081600001519050600060025486836123969190612fa6565b6009546123a39190613132565b6123ad91906130bf565b9050600060025487846123c09190612fa6565b600a546123cd9190613132565b6123d791906130bf565b9050846123e48784613132565b6123ee91906130bf565b6123f8908d612f93565b9b50846124058783613132565b61240f91906130bf565b612419908c612f93565b9a5050505050612616565b600e5442111580156124365750600f54155b156124f7576001600160a01b038b166000908152601160205260408120546002549091906124648642612fa6565b6009546124719190613132565b61247b91906130bf565b90506000600254864261248e9190612fa6565b600a5461249b9190613132565b6124a591906130bf565b6010549091506124b58484613132565b6124bf91906130bf565b6124c9908c612f93565b601054909b506124d98483613132565b6124e391906130bf565b6124ed908b612f93565b9950505050612616565b600f5415612558576001600160a01b038b16600090815260116020526040812054600254600f5491929161252c908790612fa6565b6009546125399190613132565b61254391906130bf565b9050600060025486600f5461248e9190612fa6565b6001600160a01b038b16600090815260116020526040812054600254600e54919291612585908790612fa6565b6009546125929190613132565b61259c91906130bf565b9050600060025486600e546125b19190612fa6565b600a546125be9190613132565b6125c891906130bf565b6010549091506125d88484613132565b6125e291906130bf565b6125ec908c612f93565b601054909b506125fc8483613132565b61260691906130bf565b612610908b612f93565b99505050505b50505050808061262590613149565b915050612302565b6040516001600160a01b03838116602483015260448201839052600091829182919087169060640160408051601f198184030181529181526020820180517bffffffffffffffffffffffffffffffffffffffffffffffffffffffff1663095ea7b360e01b1790525161269f9190613162565b6000604051808303816000865af19150503d80600081146126dc576040519150601f19603f3d011682016040523d82523d6000602084013e6126e1565b606091505b5091509150600081516000148061270757508180602001905181019061270791906130fa565b90508280156127135750805b979650505050505050565b6040516001600160a01b03838116602483015260448201839052600091829186169060640160408051601f198184030181529181526020820180517bffffffffffffffffffffffffffffffffffffffffffffffffffffffff1663a9059cbb60e01b1790525161278d9190613162565b6000604051808303816000865af19150503d80600081146127ca576040519150601f19603f3d011682016040523d82523d6000602084013e6127cf565b606091505b509150915060008151600014806127f55750818060200190518101906127f591906130fa565b90508280156128015750805b61284d5760405162461bcd60e51b815260206004820152601960248201527f536f6f6e737761703a205452414e534645525f4641494c454400000000000000604482015260640161086d565b505050505050565b6001546001600160a01b03610100909104163314610bd45760405162461bcd60e51b815260206004820181905260248201527f4f776e61626c653a2063616c6c6572206973206e6f7420746865206f776e6572604482015260640161086d565b600180546001600160a01b038381166101008181027fffffffffffffffffffffff0000000000000000000000000000000000000000ff85161790945560405193909204169182907f8be0079c531659141344cd1fd0a4f28419497f9722a3daafe3b4186f6b6457e090600090a35050565b61292e612aaa565b6001805460ff1916811790557f62e78cea01bee320cd4e420270b5ea74000d11b0c9f74754ebdbfc544b05a258336121d5565b6000805b6014548110156129dc576000601482815481106129845761298461311c565b9060005260206000209060020201604051806040016040529081600082015481526020016001820154815250509050838160000151036129c957602001519392505050565b50806129d481613149565b915050612965565b50600092915050565b6000828152602081815260408083206001600160a01b038516845290915290205460ff16610b4157612a1681612afd565b612a21836020612b0f565b604051602001612a3292919061317e565b60408051601f198184030181529082905262461bcd60e51b825261086d91600401612d06565b60015460ff16610bd45760405162461bcd60e51b815260206004820152601460248201527f5061757361626c653a206e6f7420706175736564000000000000000000000000604482015260640161086d565b60015460ff1615610bd45760405162461bcd60e51b815260206004820152601060248201527f5061757361626c653a2070617573656400000000000000000000000000000000604482015260640161086d565b60606107526001600160a01b03831660145b60606000612b1e836002613132565b612b29906002612f93565b67ffffffffffffffff811115612b4157612b41612db5565b6040519080825280601f01601f191660200182016040528015612b6b576020820181803683370190505b509050600360fc1b81600081518110612b8657612b8661311c565b60200101906001600160f81b031916908160001a905350600f60fb1b81600181518110612bb557612bb561311c565b60200101906001600160f81b031916908160001a9053506000612bd9846002613132565b612be4906001612f93565b90505b6001811115612c69577f303132333435363738396162636465660000000000000000000000000000000085600f1660108110612c2557612c2561311c565b1a60f81b828281518110612c3b57612c3b61311c565b60200101906001600160f81b031916908160001a90535060049490941c93612c62816131ff565b9050612be7565b5083156120725760405162461bcd60e51b815260206004820181905260248201527f537472696e67733a20686578206c656e67746820696e73756666696369656e74604482015260640161086d565b600060208284031215612cca57600080fd5b81356001600160e01b03198116811461207257600080fd5b60005b83811015612cfd578181015183820152602001612ce5565b50506000910152565b6020815260008251806020840152612d25816040850160208701612ce2565b601f01601f19169190910160400192915050565b80356001600160a01b0381168114612d5057600080fd5b919050565b600060208284031215612d6757600080fd5b61207282612d39565b600060208284031215612d8257600080fd5b5035919050565b60008060408385031215612d9c57600080fd5b82359150612dac60208401612d39565b90509250929050565b634e487b7160e01b600052604160045260246000fd5b60008060008060008060008060006101208a8c031215612dea57600080fd5b893567ffffffffffffffff80821115612e0257600080fd5b818c0191508c601f830112612e1657600080fd5b813581811115612e2857612e28612db5565b604051601f8201601f19908116603f01168101908382118183101715612e5057612e50612db5565b816040528281528f6020848701011115612e6957600080fd5b82602086016020830137600060208483010152809d505050505050612e9060208b01612d39565b975060408a01359650612ea560608b01612d39565b9550612eb360808b01612d39565b989b979a50959894979660a0860135965060c08601359560e0810135955061010001359350915050565b60008060408385031215612ef057600080fd5b612ef983612d39565b946020939093013593505050565b600080600060608486031215612f1c57600080fd5b612f2584612d39565b9250612f3360208501612d39565b9150604084013590509250925092565b600181811c90821680612f5757607f821691505b602082108103612f7757634e487b7160e01b600052602260045260246000fd5b50919050565b634e487b7160e01b600052601160045260246000fd5b8082018082111561075257610752612f7d565b8181038181111561075257610752612f7d565b601f821115610a8657600081815260208120601f850160051c81016020861015612fe05750805b601f850160051c820191505b8181101561284d57828155600101612fec565b815167ffffffffffffffff81111561301957613019612db5565b61302d816130278454612f43565b84612fb9565b602080601f831160018114613062576000841561304a5750858301515b600019600386901b1c1916600185901b17855561284d565b600085815260208120601f198616915b8281101561309157888601518255948401946001909101908401613072565b50858210156130af5787850151600019600388901b60f8161c191681555b5050505050600190811b01905550565b6000826130dc57634e487b7160e01b600052601260045260246000fd5b500490565b6000602082840312156130f357600080fd5b5051919050565b60006020828403121561310c57600080fd5b8151801515811461207257600080fd5b634e487b7160e01b600052603260045260246000fd5b808202811582820484141761075257610752612f7d565b60006001820161315b5761315b612f7d565b5060010190565b60008251613174818460208701612ce2565b9190910192915050565b7f416363657373436f6e74726f6c3a206163636f756e74200000000000000000008152600083516131b6816017850160208801612ce2565b7f206973206d697373696e6720726f6c652000000000000000000000000000000060179184019182015283516131f3816028840160208801612ce2565b01602801949350505050565b60008161320e5761320e612f7d565b50600019019056fea2646970667358221220c4960a649c03e64bbddcd831ec9829e2b4564009d2bce2de4c8347c4d52eb82864736f6c63430008110033",
  "immutableReferences": {},
  "source": "// SPDX-License-Identifier: MIT\npragma solidity ^0.8.17;\n\nimport \"@openzeppelin/contracts/access/Ownable.sol\";\nimport \"@openzeppelin/contracts/token/ERC20/IERC20.sol\";\nimport \"@openzeppelin/contracts/access/Ownable.sol\";\nimport \"@openzeppelin/contracts/access/AccessControl.sol\";\nimport \"@openzeppelin/contracts/security/Pausable.sol\";\n\n//import \"@openzeppelin/contracts-upgradeable/access/OwnableUpgradeable.sol\";\n//import \"@openzeppelin/contracts-upgradeable/token/ERC20/IERC20Upgradeable.sol\";\n//import \"@openzeppelin/contracts-upgradeable/access/OwnableUpgradeable.sol\";\n//import \"@openzeppelin/contracts-upgradeable/access/AccessControlUpgradeable.sol\";\n//import \"@openzeppelin/contracts-upgradeable/security/PausableUpgradeable.sol\";\nimport \"./FarmFsctory.sol\";\nimport \"./interfaces/ISoonFarming.sol\";\nimport \"./libraries/TransferLib.sol\";\n\ncontract SoonFarming is ISoonFarming,AccessControl,Pausable,Ownable {\n\n    bytes32 public constant PAUSER_ROLE = keccak256(\"PAUSER_ROLE\");\n    bytes32 public constant CUT_SHORT_ROLE = keccak256(\"CUT_SHORT_ROLE\");\n    bytes32 public constant BLOCK_ROLE = keccak256(\"BLOCK_ROLE\");\n    uint  private blockTime  = 2;  //15s\n\n    string private _name;\n\n    address public factory;\n\n    //lptoken\n    address stakeToken;\n\n    // token;\n    uint rewardTokenNumber;\n\n    //token1\n    IERC20 rewardToken1;\n    IERC20 rewardToken2;\n\n    // (15s/b)\n    uint256 rewardPerMin1;\n    uint256 rewardPerMin2;\n\n    //\n    uint256 totalReward1;\n    uint256 totalReward2;\n\n    //\n    uint256 beginTime;\n    uint256 endTime;\n    uint256 aheadTime; //:\n\n    //\n    uint256 public totalStake;\n\n    //;\n    mapping(address => uint256) public userSake;\n\n    //;\n    mapping(address => uint256) public withdrawdReward1;\n    mapping(address => uint256) public withdrawdReward2;\n\n    FarmStake[] public timeStake;             // ;\n    mapping(address => FarmStake[]) public userTimeStake;  //;\n\n    struct FarmStake{\n        uint256 time;\n        uint256 amount;\n    }\n\n    // \n    uint private unlocked = 1;\n    modifier lock() {\n        require(unlocked == 1, 'Soonswap: LOCKED');\n        unlocked = 0;\n        _;\n        unlocked = 1;\n    }\n\n    //;\n    constructor(){\n        factory = msg.sender;\n    }\n\n//    function initialize() public virtual initializer {\n//        blockTime = 2;  // s, 15s\n//        unlocked = 1;\n//\n//        factory = _msgSender();\n//        __Ownable_init();\n//    }\n\n\n    // Farm\n    function initialize(\n        string memory name_,\n        address _stakeTokenAddr,\n        uint _rewardTokenNumber,\n        address _rewardToken1Addr,\n        address _rewardToken2Addr,\n        uint256 _reward1,\n        uint256 _reward2,\n        uint256 _beginTime,\n        uint256 _endTime\n    ) external {\n        require(msg.sender == factory, 'SoonFarming: FORBIDDEN');\n              _name =  name_;\n        stakeToken = _stakeTokenAddr;\n        rewardTokenNumber = _rewardTokenNumber;\n        rewardToken1 = IERC20(_rewardToken1Addr);\n        rewardToken2 = IERC20(_rewardToken2Addr);\n        totalReward1 = _reward1;\n        totalReward2 = _reward2;\n        beginTime = _beginTime;\n        endTime = _endTime;\n        uint256 time = _endTime - _beginTime;\n        rewardPerMin1 = _reward1 / (time/blockTime);\n        rewardPerMin2 = _reward2 / (time/blockTime);\n    }\n\n\n    function pause() public  {\n        require(_farmHasRole(PAUSER_ROLE,_msgSender()) ||\n            _farmHasRole(DEFAULT_ADMIN_ROLE,_msgSender()), \"SoonFarming:permission denied !\");\n        _pause();\n    }\n\n    function unpause() public  {\n        require(_farmHasRole(PAUSER_ROLE,_msgSender()) ||\n            _farmHasRole(DEFAULT_ADMIN_ROLE,_msgSender()), \"SoonFarming:permission denied !\");\n        _unpause();\n    }\n\n    /**\n    :\n       1.:,farm,,;\n       2.;\n       3.;\n    */\n    function cutShort(uint256 _aheadTime) public  {\n        require(_farmHasRole(CUT_SHORT_ROLE,_msgSender()) ||\n                 _farmHasRole(DEFAULT_ADMIN_ROLE,_msgSender()), \"SoonFarming:permission denied !\");\n        require(!paused(), \"SoonFarming: stake suspended due to paused\");\n        require(block.timestamp >= endTime, \"SoonFarming: block.timestamp >= endTime\");\n        require(block.timestamp <= _aheadTime, \"SoonFarming: block.timestamp <= _aheadTime\");\n        require(_aheadTime > beginTime && _aheadTime <= endTime, \"SoonFarming: The time range is wrong\");\n        aheadTime = _aheadTime;\n        emit StakeEvent(msg.sender,_aheadTime,block.timestamp);\n    }\n\n    function name() public view virtual  returns (string memory) {\n        return _name;\n    }\n\n    function getFarmStakeSize() external view returns (uint256 ){\n        return timeStake.length;\n    }\n\n    //;\n    function getReward(address _account) external view returns (uint256 , uint256 ){\n        uint256  _reward1 = 0;\n        uint256  _reward2 = 0;\n        FarmStake[] memory _userTimeStakes = userTimeStake[_account];\n        for (uint i = 0; i < _userTimeStakes.length; i++) {\n            FarmStake memory _timeStake =   _userTimeStakes[i];\n            uint256  _userTime =  _timeStake.time;\n            uint256  _userAmount =  _timeStake.amount;\n            uint256 _farmAount =  _getTimeStake(_userTime);\n            if(_userTimeStakes.length > (i + 1)){\n                FarmStake memory _userStakeLatter  =   _userTimeStakes[i+1];\n                uint256  _userTimeLatter =  _userStakeLatter.time;\n                uint256  _totalReward1 = rewardPerMin1 * (_userTimeLatter - _userTime) / blockTime;\n                uint256  _totalReward2 = rewardPerMin2 * (_userTimeLatter - _userTime) / blockTime;\n                _reward1 += (_totalReward1 * _userAmount / _farmAount);\n                _reward2 += (_totalReward2 * _userAmount / _farmAount);\n            }else if(block.timestamp <= endTime && aheadTime == 0){\n                //  ()\n                uint256  _userSake = userSake[_account];\n                uint256  _totalReward1 = rewardPerMin1 * (block.timestamp - _userTime) / blockTime;\n                uint256  _totalReward2 = rewardPerMin2 * (block.timestamp - _userTime) / blockTime;\n                _reward1 += (_totalReward1 * _userSake / totalStake);\n                _reward2 += (_totalReward2 * _userSake / totalStake);\n            }else if(aheadTime > 0 ){\n                // \n                uint256  _userSake = userSake[_account];\n                uint256  _totalReward1 = rewardPerMin1 * (aheadTime - _userTime) / blockTime;\n                uint256  _totalReward2 = rewardPerMin2 * (aheadTime - _userTime) / blockTime;\n                _reward1 += (_totalReward1 * _userSake / totalStake);\n                _reward2 += (_totalReward2 * _userSake / totalStake);\n            }else {\n                // \n                uint256  _userSake = userSake[_account];\n                uint256  _totalReward1 = rewardPerMin1 * (endTime - _userTime) / blockTime;\n                uint256  _totalReward2 = rewardPerMin2 * (endTime - _userTime) / blockTime;\n                _reward1 += (_totalReward1 * _userSake / totalStake);\n                _reward2 += (_totalReward2 * _userSake / totalStake);\n            }\n        }\n        require(_reward1 >= withdrawdReward1[_account], \"SoonFarming:_reward1 >= withdrawdReward1\");\n        require(_reward2 >= withdrawdReward2[_account], \"SoonFarming:_reward2 >= withdrawdReward2\");\n        _reward1 -= withdrawdReward1[_account];\n        _reward2 -= withdrawdReward2[_account];\n        return(_reward1,_reward2);\n    }\n\n    //\n    function getTotalStake() external view returns (uint256 ){\n        return totalStake;\n    }\n\n    // \n    function getUserStake(address account) external view returns (uint256 userStake){\n        return userSake[account];\n    }\n\n    //;\n    function getaAtivityTime() external view returns (uint256 , uint256 ){\n        return (beginTime,endTime);\n    }\n\n    /**\n      :(lock)?\n        1.,,;\n        2.Lptoken;\n        3. ;\n        4.farm;\n        5.stake ;\n    */\n    function stake(uint256 _amount)public virtual lock {\n        require(!_farmBlocked(_msgSender()), \"SoonFarming:They are blacklisted users\");\n        require(!paused(), \"SoonFarming: stake suspended due to paused\");\n        require(beginTime <= block.timestamp && block.timestamp <= endTime, \"SoonFarming: Not within the stake time\");\n        uint256 lpBalance = IERC20(stakeToken).balanceOf(msg.sender);\n        require(lpBalance >= _amount, \"SoonFarming:LpBalance not sufficient funds\");\n        IERC20(stakeToken).transferFrom(msg.sender, address(this), _amount);\n        totalStake += _amount;\n        userSake[msg.sender] +=  _amount;\n        FarmStake memory farmStake  = FarmStake(block.timestamp,totalStake);\n        timeStake.push(farmStake);\n        FarmStake memory _userFarmStake  = FarmStake(block.timestamp,userSake[msg.sender]);\n        userTimeStake[msg.sender].push(_userFarmStake);\n        emit StakeEvent(msg.sender,_amount,block.timestamp);\n    }\n\n    /**\n    : (lock)?\n        1.;\n        2.;\n        3.;\n        4.;\n        5. ,;\n        6.unStake;\n    */\n    function unStake(uint256 _amount)  public virtual lock returns(uint256,uint256){\n        require(!_farmBlocked(_msgSender()), \"SoonFarming:They are blacklisted users\");\n        require(!paused(), \"SoonFarming: stake suspended due to paused\");\n        require(beginTime <= block.timestamp, \"SoonFarming:The release of the pledge must be after the opening\");\n        require(userSake[_msgSender()] >= _amount, \"SoonFarming:userSake >= unStake\");\n        require(_amount > 0, \"SoonFarming:_amount > 0\");\n        (uint256 _reward1,uint256 _reward2) = _reward(_msgSender());\n        withdrawdReward1[msg.sender] = (withdrawdReward1[msg.sender] + _reward1);\n        withdrawdReward2[msg.sender] = (withdrawdReward2[msg.sender] + _reward2);\n        userSake[msg.sender] =  (userSake[msg.sender] - _amount);\n        totalStake  -= _amount;\n        FarmStake memory _farmStake  = FarmStake(block.timestamp,totalStake);\n        timeStake.push(_farmStake);\n        FarmStake memory _userStake  = FarmStake(block.timestamp,userSake[msg.sender]);\n        userTimeStake[msg.sender].push(_userStake);\n        TransferLib.approve(stakeToken, msg.sender, _amount);\n        TransferLib.safeTransfer(stakeToken, msg.sender, _amount);\n        if(_reward1 > 0 ){\n            TransferLib.approve(address(rewardToken1), msg.sender, _reward1);\n            TransferLib.safeTransfer(address(rewardToken1), msg.sender, _reward1);\n        }\n        if(_reward2 > 0 ){\n            TransferLib.approve(address(rewardToken2), msg.sender, _reward2);\n            TransferLib.safeTransfer(address(rewardToken2), msg.sender, _reward2);\n        }\n        emit UnStakeEvent(msg.sender,_amount,_reward1,_reward2,block.timestamp);\n        return (_reward1, _reward2);\n    }\n\n\n    /**\n     : (lock)?\n        1.: ,;\n        2.;\n        3.;\n        4.;\n        5.claim;\n    */\n    function claim() public virtual lock returns(uint256 , uint256 ){\n        require(!_farmBlocked(_msgSender()), \"SoonFarming:They are blacklisted users\");\n        require(!paused(), \"SoonFarming: stake suspended due to paused\");\n        (uint256 _reward1,uint256 _reward2) = _reward(_msgSender());\n        if(_reward1 == 0 && _reward2 == 0){\n            return (0,0);\n        }\n        withdrawdReward1[msg.sender] += _reward1;\n        withdrawdReward2[msg.sender] += _reward2;\n        if(_reward1 > 0 ){\n            TransferLib.approve(address(rewardToken1), msg.sender, _reward1);\n            TransferLib.safeTransfer(address(rewardToken1), msg.sender, _reward1);\n        }\n        if(_reward2 > 0 ){\n            TransferLib.approve(address(rewardToken2), msg.sender, _reward2);\n            TransferLib.safeTransfer(address(rewardToken2), msg.sender, _reward2);\n        }\n        emit ClaimEvent(msg.sender,_reward1,_reward2,block.timestamp);\n        return (_reward1, _reward2);\n    }\n\n    function withdraw(address token, address account,uint256 amount) public payable lock {\n        require(hasRole(DEFAULT_ADMIN_ROLE, _msgSender()), \"SoonFarming:permission denied !\");\n        TransferLib.approve(token, account, amount);\n        TransferLib.safeTransfer(token, account, amount);\n        emit WithdrawEvent(token,account,amount);\n    }\n\n    function _farmBlocked(address account) private view returns (bool){\n        return FarmFsctory(factory).isAccountBlocked(account);\n    }\n\n    function _farmHasRole(bytes32 _role,address account) private view returns (bool){\n        return FarmFsctory(factory).farmHasRole(_role, account);\n    }\n\n    function _reward(address _account) private view returns (uint256 , uint256 ){\n        uint256  _reward1 = 0;\n        uint256  _reward2 = 0;\n        FarmStake[] memory _userTimeStakes = userTimeStake[_account];\n        for (uint i = 0; i < _userTimeStakes.length; i++) {\n            FarmStake memory _timeStake =   _userTimeStakes[i];\n            uint256  _userTime =  _timeStake.time;\n            uint256  _userAmount =  _timeStake.amount;\n            uint256 _farmAount =  _getTimeStake(_userTime);\n            if(_userTimeStakes.length > (i + 1)){\n                FarmStake memory _userStakeLatter  =   _userTimeStakes[i+1];\n                uint256  _userTimeLatter =  _userStakeLatter.time;\n                uint256  _totalReward1 = rewardPerMin1 * (_userTimeLatter - _userTime) / blockTime;\n                uint256  _totalReward2 = rewardPerMin2 * (_userTimeLatter - _userTime) / blockTime;\n                _reward1 += (_totalReward1 * _userAmount / _farmAount);\n                _reward2 += (_totalReward2 * _userAmount / _farmAount);\n            }else if(block.timestamp <= endTime && aheadTime == 0){\n                //  ()\n                uint256  _userSake = userSake[_account];\n                uint256  _totalReward1 = rewardPerMin1 * (block.timestamp - _userTime) / blockTime;\n                uint256  _totalReward2 = rewardPerMin2 * (block.timestamp - _userTime) / blockTime;\n                _reward1 += (_totalReward1 * _userSake / totalStake);\n                _reward2 += (_totalReward2 * _userSake / totalStake);\n            }else if(aheadTime > 0 ){\n                // \n                uint256  _userSake = userSake[_account];\n                uint256  _totalReward1 = rewardPerMin1 * (aheadTime - _userTime) / blockTime;\n                uint256  _totalReward2 = rewardPerMin2 * (aheadTime - _userTime) / blockTime;\n                _reward1 += (_totalReward1 * _userSake / totalStake);\n                _reward2 += (_totalReward2 * _userSake / totalStake);\n            }else {\n                // \n                uint256  _userSake = userSake[_account];\n                uint256  _totalReward1 = rewardPerMin1 * (endTime - _userTime) / blockTime;\n                uint256  _totalReward2 = rewardPerMin2 * (endTime - _userTime) / blockTime;\n                _reward1 += (_totalReward1 * _userSake / totalStake);\n                _reward2 += (_totalReward2 * _userSake / totalStake);\n            }\n        }\n        require(_reward1 >= withdrawdReward1[_account], \"SoonFarming:_reward1 >= withdrawdReward1\");\n        require(_reward2 >= withdrawdReward2[_account], \"SoonFarming:_reward2 >= withdrawdReward2\");\n        _reward1 -= withdrawdReward1[_account];\n        _reward2 -= withdrawdReward2[_account];\n        return(_reward1,_reward2);\n    }\n\n    function _getTimeStake(uint256 _time) private view returns (uint256 ){\n        for (uint i = 0; i < timeStake.length; i++) {\n            FarmStake  memory _farmStake =   timeStake[i];\n            if(_farmStake.time == _time){\n                return _farmStake.amount;\n            }\n        }\n        return 0;\n    }\n}\n",
  "sourcePath": "/Users/brett/workSpace/NFTSea/soonfarming/contracts/SoonFarming.sol",
  "compiler": {
    "name": "solc",
    "version": "0.8.17+commit.8df45f5f.Emscripten.clang"
  },
  "schemaVersion": "3.4.9",
  "updatedAt": "2022-12-21T10:09:46.269Z",
  "networkType": "ethereum",
  "devdoc": {
    "kind": "dev",
    "methods": {
      "getRoleAdmin(bytes32)": {
        "details": "Returns the admin role that controls `role`. See {grantRole} and {revokeRole}. To change a role's admin, use {_setRoleAdmin}."
      },
      "grantRole(bytes32,address)": {
        "details": "Grants `role` to `account`. If `account` had not been already granted `role`, emits a {RoleGranted} event. Requirements: - the caller must have ``role``'s admin role. May emit a {RoleGranted} event."
      },
      "hasRole(bytes32,address)": {
        "details": "Returns `true` if `account` has been granted `role`."
      },
      "owner()": {
        "details": "Returns the address of the current owner."
      },
      "paused()": {
        "details": "Returns true if the contract is paused, and false otherwise."
      },
      "renounceOwnership()": {
        "details": "Leaves the contract without owner. It will not be possible to call `onlyOwner` functions anymore. Can only be called by the current owner. NOTE: Renouncing ownership will leave the contract without an owner, thereby removing any functionality that is only available to the owner."
      },
      "renounceRole(bytes32,address)": {
        "details": "Revokes `role` from the calling account. Roles are often managed via {grantRole} and {revokeRole}: this function's purpose is to provide a mechanism for accounts to lose their privileges if they are compromised (such as when a trusted device is misplaced). If the calling account had been revoked `role`, emits a {RoleRevoked} event. Requirements: - the caller must be `account`. May emit a {RoleRevoked} event."
      },
      "revokeRole(bytes32,address)": {
        "details": "Revokes `role` from `account`. If `account` had been granted `role`, emits a {RoleRevoked} event. Requirements: - the caller must have ``role``'s admin role. May emit a {RoleRevoked} event."
      },
      "supportsInterface(bytes4)": {
        "details": "See {IERC165-supportsInterface}."
      },
      "transferOwnership(address)": {
        "details": "Transfers ownership of the contract to a new account (`newOwner`). Can only be called by the current owner."
      }
    },
    "version": 1
  },
  "userdoc": {
    "kind": "user",
    "methods": {
      "claim()": {
        "notice": ": (lock)? 1.: ,; 2.; 3.; 4.; 5.claim;"
      },
      "cutShort(uint256)": {
        "notice": ": 1.:,farm,,; 2.; 3.;"
      },
      "stake(uint256)": {
        "notice": ":(lock)? 1.,,; 2.Lptoken; 3. ; 4.farm; 5.stake ;"
      },
      "unStake(uint256)": {
        "notice": ": (lock)? 1.; 2.; 3.; 4.; 5. ,; 6.unStake;"
      }
    },
    "version": 1
  }
}