{
  "contractName": "StrutTest",
  "abi": [
    {
      "inputs": [
        {
          "internalType": "uint256",
          "name": "",
          "type": "uint256"
        }
      ],
      "name": "items",
      "outputs": [
        {
          "internalType": "address",
          "name": "nftContract",
          "type": "address"
        },
        {
          "internalType": "uint256",
          "name": "sellOrderId",
          "type": "uint256"
        },
        {
          "internalType": "uint256",
          "name": "nftId",
          "type": "uint256"
        },
        {
          "internalType": "uint256",
          "name": "price",
          "type": "uint256"
        },
        {
          "internalType": "bool",
          "name": "state",
          "type": "bool"
        }
      ],
      "stateMutability": "view",
      "type": "function"
    },
    {
      "inputs": [],
      "name": "getItems",
      "outputs": [
        {
          "components": [
            {
              "internalType": "address",
              "name": "nftContract",
              "type": "address"
            },
            {
              "internalType": "uint256",
              "name": "sellOrderId",
              "type": "uint256"
            },
            {
              "internalType": "uint256",
              "name": "nftId",
              "type": "uint256"
            },
            {
              "internalType": "uint256",
              "name": "price",
              "type": "uint256"
            },
            {
              "internalType": "bool",
              "name": "state",
              "type": "bool"
            }
          ],
          "internalType": "struct StrutTest.SellOrderItem[]",
          "name": "",
          "type": "tuple[]"
        }
      ],
      "stateMutability": "view",
      "type": "function"
    },
    {
      "inputs": [],
      "name": "length",
      "outputs": [
        {
          "internalType": "uint256",
          "name": "c",
          "type": "uint256"
        }
      ],
      "stateMutability": "view",
      "type": "function"
    },
    {
      "inputs": [
        {
          "components": [
            {
              "internalType": "address",
              "name": "nftContract",
              "type": "address"
            },
            {
              "internalType": "uint256",
              "name": "sellOrderId",
              "type": "uint256"
            },
            {
              "internalType": "uint256",
              "name": "nftId",
              "type": "uint256"
            },
            {
              "internalType": "uint256",
              "name": "price",
              "type": "uint256"
            },
            {
              "internalType": "bool",
              "name": "state",
              "type": "bool"
            }
          ],
          "internalType": "struct StrutTest.SellOrderItem",
          "name": "itme",
          "type": "tuple"
        }
      ],
      "name": "addValue",
      "outputs": [],
      "stateMutability": "nonpayable",
      "type": "function"
    },
    {
      "inputs": [
        {
          "components": [
            {
              "internalType": "address",
              "name": "nftContract",
              "type": "address"
            },
            {
              "internalType": "uint256",
              "name": "sellOrderId",
              "type": "uint256"
            },
            {
              "internalType": "uint256",
              "name": "nftId",
              "type": "uint256"
            },
            {
              "internalType": "uint256",
              "name": "price",
              "type": "uint256"
            },
            {
              "internalType": "bool",
              "name": "state",
              "type": "bool"
            }
          ],
          "internalType": "struct StrutTest.SellOrderItem",
          "name": "itme",
          "type": "tuple"
        },
        {
          "internalType": "uint256",
          "name": "index",
          "type": "uint256"
        }
      ],
      "name": "add",
      "outputs": [],
      "stateMutability": "nonpayable",
      "type": "function"
    },
    {
      "inputs": [
        {
          "internalType": "uint256",
          "name": "index",
          "type": "uint256"
        }
      ],
      "name": "deleteByIndex",
      "outputs": [],
      "stateMutability": "nonpayable",
      "type": "function"
    }
  ],
  "bytecode": "0x608060405234801561001057600080fd5b506105e7806100206000396000f3fe608060405234801561001057600080fd5b50600436106100725760003560e01c8063410d59cc11610050578063410d59cc146100b55780635912ffc4146100ca578063bfb231d2146101f057600080fd5b80631b6a26ed146100775780631e69607e1461008c5780631f7b6d321461009f575b600080fd5b61008a6100853660046104bb565b610237565b005b61008a61009a3660046104e6565b6102c4565b6000546040519081526020015b60405180910390f35b6100bd610325565b6040516100ac91906104ff565b61008a6100d8366004610578565b6000805460018101825590805281517f290decd9548b62a8d60345a988386fc84ba6bc95484008f6362f93160ef3e5636005909202918201805473ffffffffffffffffffffffffffffffffffffffff19166001600160a01b0390921691909117905560208201517f290decd9548b62a8d60345a988386fc84ba6bc95484008f6362f93160ef3e56482015560408201517f290decd9548b62a8d60345a988386fc84ba6bc95484008f6362f93160ef3e56582015560608201517f290decd9548b62a8d60345a988386fc84ba6bc95484008f6362f93160ef3e5668201556080909101517f290decd9548b62a8d60345a988386fc84ba6bc95484008f6362f93160ef3e567909101805460ff1916911515919091179055565b6102036101fe3660046104e6565b6103be565b604080516001600160a01b03909616865260208601949094529284019190915260608301521515608082015260a0016100ac565b816000828154811061024b5761024b61059b565b6000918252602091829020835160059290920201805473ffffffffffffffffffffffffffffffffffffffff19166001600160a01b0390921691909117815590820151600182015560408201516002820155606082015160038201556080909101516004909101805460ff19169115159190911790555050565b600081815481106102d7576102d761059b565b600091825260208220600590910201805473ffffffffffffffffffffffffffffffffffffffff1916815560018101829055600281018290556003810191909155600401805460ff1916905550565b60606000805480602002602001604051908101604052809291908181526020016000905b828210156103b55760008481526020908190206040805160a0810182526005860290920180546001600160a01b0316835260018082015484860152600282015492840192909252600381015460608401526004015460ff16151560808301529083529092019101610349565b50505050905090565b600081815481106103ce57600080fd5b6000918252602090912060059091020180546001820154600283015460038401546004909401546001600160a01b0390931694509092909160ff1685565b8035801515811461041c57600080fd5b919050565b600060a0828403121561043357600080fd5b60405160a0810181811067ffffffffffffffff8211171561046457634e487b7160e01b600052604160045260246000fd5b60405290508082356001600160a01b038116811461048157600080fd5b808252506020830135602082015260408301356040820152606083013560608201526104af6080840161040c565b60808201525092915050565b60008060c083850312156104ce57600080fd5b6104d88484610421565b9460a0939093013593505050565b6000602082840312156104f857600080fd5b5035919050565b602080825282518282018190526000919060409081850190868401855b8281101561056b57815180516001600160a01b03168552868101518786015285810151868601526060808201519086015260809081015115159085015260a0909301929085019060010161051c565b5091979650505050505050565b600060a0828403121561058a57600080fd5b6105948383610421565b9392505050565b634e487b7160e01b600052603260045260246000fdfea26469706673582212208b13ceed1e5ded3c474bb14d7ea6f6c1353a0ff7428ed9623c9d1623017579d664736f6c63430008110033",
  "immutableReferences": {},
  "source": "// SPDX-License-Identifier: AGPL-3.0\npragma solidity  ^0.8.17;\n\n\ncontract StrutTest {\n\n  \n    SellOrderItem[] public items;\n\n    // sell order item\n    struct SellOrderItem {\n        address nftContract;\n        uint256 sellOrderId;\n        uint256 nftId;\n        uint256 price;\n        bool state;\n    }\n\n    function getItems() public  view returns (SellOrderItem[] memory) {\n        return items;\n    }\n\n    function length() public  view returns (uint256 c) {\n        return items.length;\n    }\n\n    function addValue(SellOrderItem memory itme) public  {\n        items.push(itme);\n    }\n\n    function add(SellOrderItem memory itme,uint index) public  {\n        items[index] = itme;\n    }\n\n    function deleteByIndex(uint index) public  {\n       delete items[index];\n    }\n\n}\n",
  "sourcePath": "/Users/brett/workSpace/NFTSea/soonfarming/contracts/test/StrutTest.sol",
  "compiler": {
    "name": "solc",
    "version": "0.8.17+commit.8df45f5f.Emscripten.clang"
  },
  "schemaVersion": "3.4.9",
  "updatedAt": "2022-12-16T07:02:14.993Z",
  "devdoc": {
    "kind": "dev",
    "methods": {},
    "version": 1
  },
  "userdoc": {
    "kind": "user",
    "methods": {},
    "version": 1
  }
}